{
  "contractName": "ChainScore",
  "abi": [
    {
      "anonymous": false,
      "inputs": [
        {
          "indexed": false,
          "internalType": "address",
          "name": "previousAdmin",
          "type": "address"
        },
        {
          "indexed": false,
          "internalType": "address",
          "name": "newAdmin",
          "type": "address"
        }
      ],
      "name": "AdminChanged",
      "type": "event"
    },
    {
      "anonymous": false,
      "inputs": [
        {
          "indexed": true,
          "internalType": "address",
          "name": "owner",
          "type": "address"
        },
        {
          "indexed": true,
          "internalType": "address",
          "name": "spender",
          "type": "address"
        },
        {
          "indexed": false,
          "internalType": "uint256",
          "name": "value",
          "type": "uint256"
        }
      ],
      "name": "Approval",
      "type": "event"
    },
    {
      "anonymous": false,
      "inputs": [
        {
          "indexed": true,
          "internalType": "address",
          "name": "beacon",
          "type": "address"
        }
      ],
      "name": "BeaconUpgraded",
      "type": "event"
    },
    {
      "anonymous": false,
      "inputs": [
        {
          "indexed": true,
          "internalType": "address",
          "name": "delegator",
          "type": "address"
        },
        {
          "indexed": true,
          "internalType": "address",
          "name": "fromDelegate",
          "type": "address"
        },
        {
          "indexed": true,
          "internalType": "address",
          "name": "toDelegate",
          "type": "address"
        }
      ],
      "name": "DelegateChanged",
      "type": "event"
    },
    {
      "anonymous": false,
      "inputs": [
        {
          "indexed": true,
          "internalType": "address",
          "name": "delegate",
          "type": "address"
        },
        {
          "indexed": false,
          "internalType": "uint256",
          "name": "previousBalance",
          "type": "uint256"
        },
        {
          "indexed": false,
          "internalType": "uint256",
          "name": "newBalance",
          "type": "uint256"
        }
      ],
      "name": "DelegateVotesChanged",
      "type": "event"
    },
    {
      "anonymous": false,
      "inputs": [
        {
          "indexed": true,
          "internalType": "address",
          "name": "previousOwner",
          "type": "address"
        },
        {
          "indexed": true,
          "internalType": "address",
          "name": "newOwner",
          "type": "address"
        }
      ],
      "name": "OwnershipTransferred",
      "type": "event"
    },
    {
      "anonymous": false,
      "inputs": [
        {
          "indexed": false,
          "internalType": "address",
          "name": "account",
          "type": "address"
        }
      ],
      "name": "Paused",
      "type": "event"
    },
    {
      "anonymous": false,
      "inputs": [
        {
          "indexed": false,
          "internalType": "uint256",
          "name": "id",
          "type": "uint256"
        }
      ],
      "name": "Snapshot",
      "type": "event"
    },
    {
      "anonymous": false,
      "inputs": [
        {
          "indexed": true,
          "internalType": "address",
          "name": "from",
          "type": "address"
        },
        {
          "indexed": true,
          "internalType": "address",
          "name": "to",
          "type": "address"
        },
        {
          "indexed": false,
          "internalType": "uint256",
          "name": "value",
          "type": "uint256"
        }
      ],
      "name": "Transfer",
      "type": "event"
    },
    {
      "anonymous": false,
      "inputs": [
        {
          "indexed": false,
          "internalType": "address",
          "name": "account",
          "type": "address"
        }
      ],
      "name": "Unpaused",
      "type": "event"
    },
    {
      "anonymous": false,
      "inputs": [
        {
          "indexed": true,
          "internalType": "address",
          "name": "implementation",
          "type": "address"
        }
      ],
      "name": "Upgraded",
      "type": "event"
    },
    {
      "inputs": [],
      "name": "DOMAIN_SEPARATOR",
      "outputs": [
        {
          "internalType": "bytes32",
          "name": "",
          "type": "bytes32"
        }
      ],
      "stateMutability": "view",
      "type": "function",
      "constant": true
    },
    {
      "inputs": [
        {
          "internalType": "address",
          "name": "owner",
          "type": "address"
        },
        {
          "internalType": "address",
          "name": "spender",
          "type": "address"
        }
      ],
      "name": "allowance",
      "outputs": [
        {
          "internalType": "uint256",
          "name": "",
          "type": "uint256"
        }
      ],
      "stateMutability": "view",
      "type": "function",
      "constant": true
    },
    {
      "inputs": [
        {
          "internalType": "address",
          "name": "spender",
          "type": "address"
        },
        {
          "internalType": "uint256",
          "name": "amount",
          "type": "uint256"
        }
      ],
      "name": "approve",
      "outputs": [
        {
          "internalType": "bool",
          "name": "",
          "type": "bool"
        }
      ],
      "stateMutability": "nonpayable",
      "type": "function"
    },
    {
      "inputs": [
        {
          "internalType": "address",
          "name": "account",
          "type": "address"
        }
      ],
      "name": "balanceOf",
      "outputs": [
        {
          "internalType": "uint256",
          "name": "",
          "type": "uint256"
        }
      ],
      "stateMutability": "view",
      "type": "function",
      "constant": true
    },
    {
      "inputs": [
        {
          "internalType": "address",
          "name": "account",
          "type": "address"
        },
        {
          "internalType": "uint256",
          "name": "snapshotId",
          "type": "uint256"
        }
      ],
      "name": "balanceOfAt",
      "outputs": [
        {
          "internalType": "uint256",
          "name": "",
          "type": "uint256"
        }
      ],
      "stateMutability": "view",
      "type": "function",
      "constant": true
    },
    {
      "inputs": [
        {
          "internalType": "uint256",
          "name": "amount",
          "type": "uint256"
        }
      ],
      "name": "burn",
      "outputs": [],
      "stateMutability": "nonpayable",
      "type": "function"
    },
    {
      "inputs": [
        {
          "internalType": "address",
          "name": "account",
          "type": "address"
        },
        {
          "internalType": "uint256",
          "name": "amount",
          "type": "uint256"
        }
      ],
      "name": "burnFrom",
      "outputs": [],
      "stateMutability": "nonpayable",
      "type": "function"
    },
    {
      "inputs": [
        {
          "internalType": "address",
          "name": "account",
          "type": "address"
        },
        {
          "internalType": "uint32",
          "name": "pos",
          "type": "uint32"
        }
      ],
      "name": "checkpoints",
      "outputs": [
        {
          "components": [
            {
              "internalType": "uint32",
              "name": "fromBlock",
              "type": "uint32"
            },
            {
              "internalType": "uint224",
              "name": "votes",
              "type": "uint224"
            }
          ],
          "internalType": "struct ERC20VotesUpgradeable.Checkpoint",
          "name": "",
          "type": "tuple"
        }
      ],
      "stateMutability": "view",
      "type": "function",
      "constant": true
    },
    {
      "inputs": [],
      "name": "decimals",
      "outputs": [
        {
          "internalType": "uint8",
          "name": "",
          "type": "uint8"
        }
      ],
      "stateMutability": "view",
      "type": "function",
      "constant": true
    },
    {
      "inputs": [
        {
          "internalType": "address",
          "name": "spender",
          "type": "address"
        },
        {
          "internalType": "uint256",
          "name": "subtractedValue",
          "type": "uint256"
        }
      ],
      "name": "decreaseAllowance",
      "outputs": [
        {
          "internalType": "bool",
          "name": "",
          "type": "bool"
        }
      ],
      "stateMutability": "nonpayable",
      "type": "function"
    },
    {
      "inputs": [
        {
          "internalType": "address",
          "name": "delegatee",
          "type": "address"
        }
      ],
      "name": "delegate",
      "outputs": [],
      "stateMutability": "nonpayable",
      "type": "function"
    },
    {
      "inputs": [
        {
          "internalType": "address",
          "name": "delegatee",
          "type": "address"
        },
        {
          "internalType": "uint256",
          "name": "nonce",
          "type": "uint256"
        },
        {
          "internalType": "uint256",
          "name": "expiry",
          "type": "uint256"
        },
        {
          "internalType": "uint8",
          "name": "v",
          "type": "uint8"
        },
        {
          "internalType": "bytes32",
          "name": "r",
          "type": "bytes32"
        },
        {
          "internalType": "bytes32",
          "name": "s",
          "type": "bytes32"
        }
      ],
      "name": "delegateBySig",
      "outputs": [],
      "stateMutability": "nonpayable",
      "type": "function"
    },
    {
      "inputs": [
        {
          "internalType": "address",
          "name": "account",
          "type": "address"
        }
      ],
      "name": "delegates",
      "outputs": [
        {
          "internalType": "address",
          "name": "",
          "type": "address"
        }
      ],
      "stateMutability": "view",
      "type": "function",
      "constant": true
    },
    {
      "inputs": [
        {
          "internalType": "uint256",
          "name": "blockNumber",
          "type": "uint256"
        }
      ],
      "name": "getPastTotalSupply",
      "outputs": [
        {
          "internalType": "uint256",
          "name": "",
          "type": "uint256"
        }
      ],
      "stateMutability": "view",
      "type": "function",
      "constant": true
    },
    {
      "inputs": [
        {
          "internalType": "address",
          "name": "account",
          "type": "address"
        },
        {
          "internalType": "uint256",
          "name": "blockNumber",
          "type": "uint256"
        }
      ],
      "name": "getPastVotes",
      "outputs": [
        {
          "internalType": "uint256",
          "name": "",
          "type": "uint256"
        }
      ],
      "stateMutability": "view",
      "type": "function",
      "constant": true
    },
    {
      "inputs": [
        {
          "internalType": "address",
          "name": "account",
          "type": "address"
        }
      ],
      "name": "getVotes",
      "outputs": [
        {
          "internalType": "uint256",
          "name": "",
          "type": "uint256"
        }
      ],
      "stateMutability": "view",
      "type": "function",
      "constant": true
    },
    {
      "inputs": [
        {
          "internalType": "address",
          "name": "spender",
          "type": "address"
        },
        {
          "internalType": "uint256",
          "name": "addedValue",
          "type": "uint256"
        }
      ],
      "name": "increaseAllowance",
      "outputs": [
        {
          "internalType": "bool",
          "name": "",
          "type": "bool"
        }
      ],
      "stateMutability": "nonpayable",
      "type": "function"
    },
    {
      "inputs": [],
      "name": "name",
      "outputs": [
        {
          "internalType": "string",
          "name": "",
          "type": "string"
        }
      ],
      "stateMutability": "view",
      "type": "function",
      "constant": true
    },
    {
      "inputs": [
        {
          "internalType": "address",
          "name": "owner",
          "type": "address"
        }
      ],
      "name": "nonces",
      "outputs": [
        {
          "internalType": "uint256",
          "name": "",
          "type": "uint256"
        }
      ],
      "stateMutability": "view",
      "type": "function",
      "constant": true
    },
    {
      "inputs": [
        {
          "internalType": "address",
          "name": "account",
          "type": "address"
        }
      ],
      "name": "numCheckpoints",
      "outputs": [
        {
          "internalType": "uint32",
          "name": "",
          "type": "uint32"
        }
      ],
      "stateMutability": "view",
      "type": "function",
      "constant": true
    },
    {
      "inputs": [],
      "name": "owner",
      "outputs": [
        {
          "internalType": "address",
          "name": "",
          "type": "address"
        }
      ],
      "stateMutability": "view",
      "type": "function",
      "constant": true
    },
    {
      "inputs": [],
      "name": "paused",
      "outputs": [
        {
          "internalType": "bool",
          "name": "",
          "type": "bool"
        }
      ],
      "stateMutability": "view",
      "type": "function",
      "constant": true
    },
    {
      "inputs": [
        {
          "internalType": "address",
          "name": "owner",
          "type": "address"
        },
        {
          "internalType": "address",
          "name": "spender",
          "type": "address"
        },
        {
          "internalType": "uint256",
          "name": "value",
          "type": "uint256"
        },
        {
          "internalType": "uint256",
          "name": "deadline",
          "type": "uint256"
        },
        {
          "internalType": "uint8",
          "name": "v",
          "type": "uint8"
        },
        {
          "internalType": "bytes32",
          "name": "r",
          "type": "bytes32"
        },
        {
          "internalType": "bytes32",
          "name": "s",
          "type": "bytes32"
        }
      ],
      "name": "permit",
      "outputs": [],
      "stateMutability": "nonpayable",
      "type": "function"
    },
    {
      "inputs": [],
      "name": "renounceOwnership",
      "outputs": [],
      "stateMutability": "nonpayable",
      "type": "function"
    },
    {
      "inputs": [],
      "name": "symbol",
      "outputs": [
        {
          "internalType": "string",
          "name": "",
          "type": "string"
        }
      ],
      "stateMutability": "view",
      "type": "function",
      "constant": true
    },
    {
      "inputs": [],
      "name": "totalSupply",
      "outputs": [
        {
          "internalType": "uint256",
          "name": "",
          "type": "uint256"
        }
      ],
      "stateMutability": "view",
      "type": "function",
      "constant": true
    },
    {
      "inputs": [
        {
          "internalType": "uint256",
          "name": "snapshotId",
          "type": "uint256"
        }
      ],
      "name": "totalSupplyAt",
      "outputs": [
        {
          "internalType": "uint256",
          "name": "",
          "type": "uint256"
        }
      ],
      "stateMutability": "view",
      "type": "function",
      "constant": true
    },
    {
      "inputs": [
        {
          "internalType": "address",
          "name": "recipient",
          "type": "address"
        },
        {
          "internalType": "uint256",
          "name": "amount",
          "type": "uint256"
        }
      ],
      "name": "transfer",
      "outputs": [
        {
          "internalType": "bool",
          "name": "",
          "type": "bool"
        }
      ],
      "stateMutability": "nonpayable",
      "type": "function"
    },
    {
      "inputs": [
        {
          "internalType": "address",
          "name": "sender",
          "type": "address"
        },
        {
          "internalType": "address",
          "name": "recipient",
          "type": "address"
        },
        {
          "internalType": "uint256",
          "name": "amount",
          "type": "uint256"
        }
      ],
      "name": "transferFrom",
      "outputs": [
        {
          "internalType": "bool",
          "name": "",
          "type": "bool"
        }
      ],
      "stateMutability": "nonpayable",
      "type": "function"
    },
    {
      "inputs": [
        {
          "internalType": "address",
          "name": "newOwner",
          "type": "address"
        }
      ],
      "name": "transferOwnership",
      "outputs": [],
      "stateMutability": "nonpayable",
      "type": "function"
    },
    {
      "inputs": [
        {
          "internalType": "address",
          "name": "newImplementation",
          "type": "address"
        }
      ],
      "name": "upgradeTo",
      "outputs": [],
      "stateMutability": "nonpayable",
      "type": "function"
    },
    {
      "inputs": [
        {
          "internalType": "address",
          "name": "newImplementation",
          "type": "address"
        },
        {
          "internalType": "bytes",
          "name": "data",
          "type": "bytes"
        }
      ],
      "name": "upgradeToAndCall",
      "outputs": [],
      "stateMutability": "payable",
      "type": "function",
      "payable": true
    },
    {
      "inputs": [],
      "name": "initialize",
      "outputs": [],
      "stateMutability": "nonpayable",
      "type": "function"
    },
    {
      "inputs": [],
      "name": "snapshot",
      "outputs": [],
      "stateMutability": "nonpayable",
      "type": "function"
    },
    {
      "inputs": [],
      "name": "pause",
      "outputs": [],
      "stateMutability": "nonpayable",
      "type": "function"
    },
    {
      "inputs": [],
      "name": "unpause",
      "outputs": [],
      "stateMutability": "nonpayable",
      "type": "function"
    },
    {
      "inputs": [
        {
          "internalType": "address",
          "name": "to",
          "type": "address"
        },
        {
          "internalType": "uint256",
          "name": "amount",
          "type": "uint256"
        }
      ],
      "name": "mint",
      "outputs": [],
      "stateMutability": "nonpayable",
      "type": "function"
    }
  ],
  "bytecode": "0x60a06040523060805234801561001457600080fd5b5060805161378461004560003960008181610894015281816108d401528181610adc0152610b1c01526137846000f3fe60806040526004361061021a5760003560e01c806370a08231116101235780639711715a116100ab578063c3cda5201161006f578063c3cda52014610630578063d505accf14610650578063dd62ed3e14610670578063f1127ed8146106b6578063f2fde38b1461070057600080fd5b80639711715a1461059b578063981b24d0146105b05780639ab24eb0146105d0578063a457c2d7146105f0578063a9059cbb1461061057600080fd5b80638129fc1c116100f25780638129fc1c1461051e5780638456cb59146105335780638da5cb5b146105485780638e539e8c1461056657806395d89b411461058657600080fd5b806370a0823114610493578063715018a6146104c957806379cc6790146104de5780637ecebe00146104fe57600080fd5b80633f4ba83a116101a65780634f1ef286116101755780634f1ef286146103c1578063587cde1e146103d45780635c19a95c146104265780635c975abb146104465780636fcfff451461045e57600080fd5b80633f4ba83a1461034c57806340c10f191461036157806342966c68146103815780634ee2cd7e146103a157600080fd5b8063313ce567116101ed578063313ce567146102b95780633644e515146102d55780633659cfe6146102ea578063395093511461030c5780633a46b1a81461032c57600080fd5b806306fdde031461021f578063095ea7b31461024a57806318160ddd1461027a57806323b872dd14610299575b600080fd5b34801561022b57600080fd5b50610234610720565b604051610241919061311c565b60405180910390f35b34801561025657600080fd5b5061026a610265366004613166565b6107b2565b6040519015158152602001610241565b34801561028657600080fd5b506035545b604051908152602001610241565b3480156102a557600080fd5b5061026a6102b4366004613190565b6107c9565b3480156102c557600080fd5b5060405160128152602001610241565b3480156102e157600080fd5b5061028b61087a565b3480156102f657600080fd5b5061030a6103053660046131cc565b610889565b005b34801561031857600080fd5b5061026a610327366004613166565b610952565b34801561033857600080fd5b5061028b610347366004613166565b61098e565b34801561035857600080fd5b5061030a610a02565b34801561036d57600080fd5b5061030a61037c366004613166565b610a36565b34801561038d57600080fd5b5061030a61039c3660046131e7565b610a6e565b3480156103ad57600080fd5b5061028b6103bc366004613166565b610a78565b61030a6103cf366004613216565b610ad1565b3480156103e057600080fd5b5061040e6103ef3660046131cc565b6001600160a01b03908116600090815261019460205260409020541690565b6040516001600160a01b039091168152602001610241565b34801561043257600080fd5b5061030a6104413660046131cc565b610b87565b34801561045257600080fd5b5060fb5460ff1661026a565b34801561046a57600080fd5b5061047e6104793660046131cc565b610b91565b60405163ffffffff9091168152602001610241565b34801561049f57600080fd5b5061028b6104ae3660046131cc565b6001600160a01b031660009081526033602052604090205490565b3480156104d557600080fd5b5061030a610bb4565b3480156104ea57600080fd5b5061030a6104f9366004613166565b610be8565b34801561050a57600080fd5b5061028b6105193660046131cc565b610c6e565b34801561052a57600080fd5b5061030a610c8d565b34801561053f57600080fd5b5061030a610db7565b34801561055457600080fd5b5060c9546001600160a01b031661040e565b34801561057257600080fd5b5061028b6105813660046131e7565b610de9565b34801561059257600080fd5b50610234610e46565b3480156105a757600080fd5b5061030a610e55565b3480156105bc57600080fd5b5061028b6105cb3660046131e7565b610e87565b3480156105dc57600080fd5b5061028b6105eb3660046131cc565b610eb2565b3480156105fc57600080fd5b5061026a61060b366004613166565b610f3b565b34801561061c57600080fd5b5061026a61062b366004613166565b610fd4565b34801561063c57600080fd5b5061030a61064b3660046132e9565b610fe1565b34801561065c57600080fd5b5061030a61066b366004613341565b611117565b34801561067c57600080fd5b5061028b61068b3660046133ab565b6001600160a01b03918216600090815260346020908152604080832093909416825291909152205490565b3480156106c257600080fd5b506106d66106d13660046133de565b61125e565b60408051825163ffffffff1681526020928301516001600160e01b03169281019290925201610241565b34801561070c57600080fd5b5061030a61071b3660046131cc565b6112e3565b60606036805461072f9061341e565b80601f016020809104026020016040519081016040528092919081815260200182805461075b9061341e565b80156107a85780601f1061077d576101008083540402835291602001916107a8565b820191906000526020600020905b81548152906001019060200180831161078b57829003601f168201915b5050505050905090565b60006107bf33848461137b565b5060015b92915050565b60006107d684848461149f565b6001600160a01b0384166000908152603460209081526040808320338452909152902054828110156108605760405162461bcd60e51b815260206004820152602860248201527f45524332303a207472616e7366657220616d6f756e74206578636565647320616044820152676c6c6f77616e636560c01b60648201526084015b60405180910390fd5b61086d853385840361137b565b60019150505b9392505050565b6000610884611684565b905090565b306001600160a01b037f00000000000000000000000000000000000000000000000000000000000000001614156108d25760405162461bcd60e51b815260040161085790613453565b7f00000000000000000000000000000000000000000000000000000000000000006001600160a01b0316610904611701565b6001600160a01b03161461092a5760405162461bcd60e51b81526004016108579061349f565b6109338161172f565b6040805160008082526020820190925261094f91839190611759565b50565b3360008181526034602090815260408083206001600160a01b038716845290915281205490916107bf918590610989908690613501565b61137b565b60004382106109df5760405162461bcd60e51b815260206004820152601f60248201527f4552433230566f7465733a20626c6f636b206e6f7420796574206d696e6564006044820152606401610857565b6001600160a01b03831660009081526101956020526040902061087390836118a4565b60c9546001600160a01b03163314610a2c5760405162461bcd60e51b815260040161085790613519565b610a34611961565b565b60c9546001600160a01b03163314610a605760405162461bcd60e51b815260040161085790613519565b610a6a82826119f4565b5050565b61094f33826119fe565b6001600160a01b038216600090815260976020526040812081908190610a9f908590611a08565b9150915081610ac6576001600160a01b038516600090815260336020526040902054610ac8565b805b95945050505050565b306001600160a01b037f0000000000000000000000000000000000000000000000000000000000000000161415610b1a5760405162461bcd60e51b815260040161085790613453565b7f00000000000000000000000000000000000000000000000000000000000000006001600160a01b0316610b4c611701565b6001600160a01b031614610b725760405162461bcd60e51b81526004016108579061349f565b610b7b8261172f565b610a6a82826001611759565b61094f3382611b05565b6001600160a01b038116600090815261019560205260408120546107c390611b80565b60c9546001600160a01b03163314610bde5760405162461bcd60e51b815260040161085790613519565b610a346000611be9565b6000610bf4833361068b565b905081811015610c525760405162461bcd60e51b8152602060048201526024808201527f45524332303a206275726e20616d6f756e74206578636565647320616c6c6f77604482015263616e636560e01b6064820152608401610857565b610c5f833384840361137b565b610c6983836119fe565b505050565b6001600160a01b038116600090815261016160205260408120546107c3565b600054610100900460ff1680610ca6575060005460ff16155b610cc25760405162461bcd60e51b81526004016108579061354e565b600054610100900460ff16158015610ce4576000805461ffff19166101011790555b610d2d6040518060400160405280600a815260200169436861696e53636f726560b01b8152506040518060400160405280600581526020016453434f524560d81b815250611c3b565b610d35611cba565b610d3d611cba565b610d45611d21565b610d4d611d88565b610d786040518060400160405280600a815260200169436861696e53636f726560b01b815250611def565b610d80611cba565b610da333610d906012600a613678565b610d9e90633b9aca00613687565b6119f4565b801561094f576000805461ff001916905550565b60c9546001600160a01b03163314610de15760405162461bcd60e51b815260040161085790613519565b610a34611e8f565b6000438210610e3a5760405162461bcd60e51b815260206004820152601f60248201527f4552433230566f7465733a20626c6f636b206e6f7420796574206d696e6564006044820152606401610857565b6107c3610196836118a4565b60606037805461072f9061341e565b60c9546001600160a01b03163314610e7f5760405162461bcd60e51b815260040161085790613519565b61094f611f0a565b6000806000610e97846098611a08565b9150915081610ea857603554610eaa565b805b949350505050565b6001600160a01b038116600090815261019560205260408120548015610f28576001600160a01b038316600090815261019560205260409020610ef66001836136a6565b81548110610f0657610f066136bd565b60009182526020909120015464010000000090046001600160e01b0316610f2b565b60005b6001600160e01b03169392505050565b3360009081526034602090815260408083206001600160a01b038616845290915281205482811015610fbd5760405162461bcd60e51b815260206004820152602560248201527f45524332303a2064656372656173656420616c6c6f77616e63652062656c6f77604482015264207a65726f60d81b6064820152608401610857565b610fca338585840361137b565b5060019392505050565b60006107bf33848461149f565b834211156110315760405162461bcd60e51b815260206004820152601d60248201527f4552433230566f7465733a207369676e617475726520657870697265640000006044820152606401610857565b604080517fe48329057bfd03d55e49b547132e39cffd9c1820ad7b9d4c5307691425d15adf60208201526001600160a01b0388169181019190915260608101869052608081018590526000906110ab906110a39060a00160405160208183030381529060405280519060200120611f64565b858585611fb2565b90506110b681611fda565b86146111045760405162461bcd60e51b815260206004820152601960248201527f4552433230566f7465733a20696e76616c6964206e6f6e6365000000000000006044820152606401610857565b61110e8188611b05565b50505050505050565b834211156111675760405162461bcd60e51b815260206004820152601d60248201527f45524332305065726d69743a206578706972656420646561646c696e650000006044820152606401610857565b6000610162548888886111798c611fda565b6040805160208101969096526001600160a01b0394851690860152929091166060840152608083015260a082015260c0810186905260e00160405160208183030381529060405280519060200120905060006111d482611f64565b905060006111e482878787611fb2565b9050896001600160a01b0316816001600160a01b0316146112475760405162461bcd60e51b815260206004820152601e60248201527f45524332305065726d69743a20696e76616c6964207369676e617475726500006044820152606401610857565b6112528a8a8a61137b565b50505050505050505050565b60408051808201909152600080825260208201526001600160a01b038316600090815261019560205260409020805463ffffffff84169081106112a3576112a36136bd565b60009182526020918290206040805180820190915291015463ffffffff8116825264010000000090046001600160e01b0316918101919091529392505050565b60c9546001600160a01b0316331461130d5760405162461bcd60e51b815260040161085790613519565b6001600160a01b0381166113725760405162461bcd60e51b815260206004820152602660248201527f4f776e61626c653a206e6577206f776e657220697320746865207a65726f206160448201526564647265737360d01b6064820152608401610857565b61094f81611be9565b6001600160a01b0383166113dd5760405162461bcd60e51b8152602060048201526024808201527f45524332303a20617070726f76652066726f6d20746865207a65726f206164646044820152637265737360e01b6064820152608401610857565b6001600160a01b03821661143e5760405162461bcd60e51b815260206004820152602260248201527f45524332303a20617070726f766520746f20746865207a65726f206164647265604482015261737360f01b6064820152608401610857565b6001600160a01b0383811660008181526034602090815260408083209487168084529482529182902085905590518481527f8c5be1e5ebec7d5bd14f71427d1e84f3dd0314c0f7b2291e5b200ac8c7c3b925910160405180910390a3505050565b6001600160a01b0383166115035760405162461bcd60e51b815260206004820152602560248201527f45524332303a207472616e736665722066726f6d20746865207a65726f206164604482015264647265737360d81b6064820152608401610857565b6001600160a01b0382166115655760405162461bcd60e51b815260206004820152602360248201527f45524332303a207472616e7366657220746f20746865207a65726f206164647260448201526265737360e81b6064820152608401610857565b611570838383612003565b6001600160a01b038316600090815260336020526040902054818110156115e85760405162461bcd60e51b815260206004820152602660248201527f45524332303a207472616e7366657220616d6f756e7420657863656564732062604482015265616c616e636560d01b6064820152608401610857565b6001600160a01b0380851660009081526033602052604080822085850390559185168152908120805484929061161f908490613501565b92505081905550826001600160a01b0316846001600160a01b03167fddf252ad1be2c89b69c2b068fc378daa952ba7f163c4a11628f55a4df523b3ef8460405161166b91815260200190565b60405180910390a361167e848484612054565b50505050565b60006108847f8b73c3c69bb8fe3d512ecc4cf759cc79239f7b179b0ffacaa9a75d522b39400f6116b461012d5490565b61012e546040805160208101859052908101839052606081018290524660808201523060a082015260009060c0016040516020818303038152906040528051906020012090509392505050565b7f360894a13ba1a3210667c828492db98dca3e2076cc3735a920a3ca505d382bbc546001600160a01b031690565b60c9546001600160a01b0316331461094f5760405162461bcd60e51b815260040161085790613519565b6000611763611701565b905061176e8461205f565b60008351118061177b5750815b1561178c5761178a8484612104565b505b7f4910fdfa16fed3260ed0e7147f7cc6da11a60208b5b9406d12a635614ffd9143805460ff1661189d57805460ff191660011781556040516001600160a01b038316602482015261180b90869060440160408051601f198184030181529190526020810180516001600160e01b0316631b2ce7f360e11b179052612104565b50805460ff1916815561181c611701565b6001600160a01b0316826001600160a01b0316146118945760405162461bcd60e51b815260206004820152602f60248201527f45524331393637557067726164653a207570677261646520627265616b73206660448201526e75727468657220757067726164657360881b6064820152608401610857565b61189d856121e6565b5050505050565b8154600090815b818110156119085760006118bf8284612226565b9050848682815481106118d4576118d46136bd565b60009182526020909120015463ffffffff1611156118f457809250611902565b6118ff816001613501565b91505b506118ab565b811561194c578461191a6001846136a6565b8154811061192a5761192a6136bd565b60009182526020909120015464010000000090046001600160e01b031661194f565b60005b6001600160e01b031695945050505050565b60fb5460ff166119aa5760405162461bcd60e51b815260206004820152601460248201527314185d5cd8589b194e881b9bdd081c185d5cd95960621b6044820152606401610857565b60fb805460ff191690557f5db9ee0a495bf2e6ff9c91a7834c1ba4fdd244a5e8aa4e537bd38aeae4b073aa335b6040516001600160a01b03909116815260200160405180910390a1565b610a6a8282612241565b610a6a82826122cc565b60008060008411611a545760405162461bcd60e51b815260206004820152601660248201527504552433230536e617073686f743a20696420697320360541b6044820152606401610857565b611a5c6122e5565b841115611aab5760405162461bcd60e51b815260206004820152601d60248201527f4552433230536e617073686f743a206e6f6e6578697374656e742069640000006044820152606401610857565b6000611ab784866122f0565b8454909150811415611ad0576000809250925050611afe565b6001846001018281548110611ae757611ae76136bd565b90600052602060002001549250925050611afe565b505b9250929050565b6001600160a01b0382811660008181526101946020818152604080842080546033845282862054949093528787166001600160a01b03198416811790915590519190951694919391928592917f3134e8a2e6d97e929a7e54011ea5485d7d196dd5f0ba4d4ef95803e8e3fc257f9190a461167e8284836123b3565b600063ffffffff821115611be55760405162461bcd60e51b815260206004820152602660248201527f53616665436173743a2076616c756520646f65736e27742066697420696e203360448201526532206269747360d01b6064820152608401610857565b5090565b60c980546001600160a01b038381166001600160a01b0319831681179093556040519116919082907f8be0079c531659141344cd1fd0a4f28419497f9722a3daafe3b4186f6b6457e090600090a35050565b600054610100900460ff1680611c54575060005460ff16155b611c705760405162461bcd60e51b81526004016108579061354e565b600054610100900460ff16158015611c92576000805461ffff19166101011790555b611c9a6124f2565b611ca4838361255c565b8015610c69576000805461ff0019169055505050565b600054610100900460ff1680611cd3575060005460ff16155b611cef5760405162461bcd60e51b81526004016108579061354e565b600054610100900460ff16158015611d11576000805461ffff19166101011790555b611d196124f2565b610da36124f2565b600054610100900460ff1680611d3a575060005460ff16155b611d565760405162461bcd60e51b81526004016108579061354e565b600054610100900460ff16158015611d78576000805461ffff19166101011790555b611d806124f2565b610da36125f1565b600054610100900460ff1680611da1575060005460ff16155b611dbd5760405162461bcd60e51b81526004016108579061354e565b600054610100900460ff16158015611ddf576000805461ffff19166101011790555b611de76124f2565b610da3612651565b600054610100900460ff1680611e08575060005460ff16155b611e245760405162461bcd60e51b81526004016108579061354e565b600054610100900460ff16158015611e46576000805461ffff19166101011790555b611e4e6124f2565b611e7182604051806040016040528060018152602001603160f81b8152506126c6565b611e7a82612752565b8015610a6a576000805461ff00191690555050565b60fb5460ff1615611ed55760405162461bcd60e51b815260206004820152601060248201526f14185d5cd8589b194e881c185d5cd95960821b6044820152606401610857565b60fb805460ff191660011790557f62e78cea01bee320cd4e420270b5ea74000d11b0c9f74754ebdbfc544b05a2586119d73390565b6000611f1a609a80546001019055565b6000611f246122e5565b90507f8030e83b04d87bef53480e26263266d6ca66863aa8506aca6f2559d18aa1cb6781604051611f5791815260200190565b60405180910390a1919050565b60006107c3611f71611684565b8360405161190160f01b6020820152602281018390526042810182905260009060620160405160208183030381529060405280519060200120905092915050565b6000806000611fc3878787876127e3565b91509150611fd0816128d0565b5095945050505050565b6001600160a01b0381166000908152610161602052604090208054600181018255905b50919050565b60fb5460ff16156120495760405162461bcd60e51b815260206004820152601060248201526f14185d5cd8589b194e881c185d5cd95960821b6044820152606401610857565b610c69838383612a8b565b610c69838383612ad3565b803b6120c35760405162461bcd60e51b815260206004820152602d60248201527f455243313936373a206e657720696d706c656d656e746174696f6e206973206e60448201526c1bdd08184818dbdb9d1c9858dd609a1b6064820152608401610857565b7f360894a13ba1a3210667c828492db98dca3e2076cc3735a920a3ca505d382bbc80546001600160a01b0319166001600160a01b0392909216919091179055565b6060823b6121635760405162461bcd60e51b815260206004820152602660248201527f416464726573733a2064656c65676174652063616c6c20746f206e6f6e2d636f6044820152651b9d1c9858dd60d21b6064820152608401610857565b600080846001600160a01b03168460405161217e91906136d3565b600060405180830381855af49150503d80600081146121b9576040519150601f19603f3d011682016040523d82523d6000602084013e6121be565b606091505b5091509150610ac8828260405180606001604052806027815260200161372860279139612b06565b6121ef8161205f565b6040516001600160a01b038216907fbc7cd75a20ee27fd9adebab32041f755214dbc6bffa90cc0225b39da2e5c2d3b90600090a250565b600061223560028484186136ef565b61087390848416613501565b61224b8282612b3f565b6035546001600160e01b0310156122bd5760405162461bcd60e51b815260206004820152603060248201527f4552433230566f7465733a20746f74616c20737570706c79207269736b73206f60448201526f766572666c6f77696e6720766f74657360801b6064820152608401610857565b61167e610196612c3283612c3e565b6122d68282612db7565b61167e610196612f1883612c3e565b6000610884609a5490565b8154600090612301575060006107c3565b82546000905b8082101561235d57600061231b8383612226565b905084868281548110612330576123306136bd565b9060005260206000200154111561234957809150612357565b612354816001613501565b92505b50612307565b600082118015612392575083856123756001856136a6565b81548110612385576123856136bd565b9060005260206000200154145b156123ab576123a26001836136a6565b925050506107c3565b5090506107c3565b816001600160a01b0316836001600160a01b0316141580156123d55750600081115b15610c69576001600160a01b03831615612464576001600160a01b038316600090815261019560205260408120819061241190612f1885612c3e565b91509150846001600160a01b03167fdec2bacdd2f05b59de34da9b523dff8be42e5e38e818c82fdb0bae774387a7248383604051612459929190918252602082015260400190565b60405180910390a250505b6001600160a01b03821615610c69576001600160a01b038216600090815261019560205260408120819061249b90612c3285612c3e565b91509150836001600160a01b03167fdec2bacdd2f05b59de34da9b523dff8be42e5e38e818c82fdb0bae774387a72483836040516124e3929190918252602082015260400190565b60405180910390a25050505050565b600054610100900460ff168061250b575060005460ff16155b6125275760405162461bcd60e51b81526004016108579061354e565b600054610100900460ff16158015610da3576000805461ffff1916610101179055801561094f576000805461ff001916905550565b600054610100900460ff1680612575575060005460ff16155b6125915760405162461bcd60e51b81526004016108579061354e565b600054610100900460ff161580156125b3576000805461ffff19166101011790555b82516125c6906036906020860190613060565b5081516125da906037906020850190613060565b508015610c69576000805461ff0019169055505050565b600054610100900460ff168061260a575060005460ff16155b6126265760405162461bcd60e51b81526004016108579061354e565b600054610100900460ff16158015612648576000805461ffff19166101011790555b610da333611be9565b600054610100900460ff168061266a575060005460ff16155b6126865760405162461bcd60e51b81526004016108579061354e565b600054610100900460ff161580156126a8576000805461ffff19166101011790555b60fb805460ff19169055801561094f576000805461ff001916905550565b600054610100900460ff16806126df575060005460ff16155b6126fb5760405162461bcd60e51b81526004016108579061354e565b600054610100900460ff1615801561271d576000805461ffff19166101011790555b825160208085019190912083519184019190912061012d9190915561012e558015610c69576000805461ff0019169055505050565b600054610100900460ff168061276b575060005460ff16155b6127875760405162461bcd60e51b81526004016108579061354e565b600054610100900460ff161580156127a9576000805461ffff19166101011790555b7f6e71edae12b1b97f4d1f60370fef10105fa2faae0126114a169c64845d6126c9610162558015610a6a576000805461ff00191690555050565b6000807f7fffffffffffffffffffffffffffffff5d576e7357a4501ddfe92f46681b20a083111561281a57506000905060036128c7565b8460ff16601b1415801561283257508460ff16601c14155b1561284357506000905060046128c7565b6040805160008082526020820180845289905260ff881692820192909252606081018690526080810185905260019060a0016020604051602081039080840390855afa158015612897573d6000803e3d6000fd5b5050604051601f1901519150506001600160a01b0381166128c0576000600192509250506128c7565b9150600090505b94509492505050565b60008160048111156128e4576128e4613711565b14156128ed5750565b600181600481111561290157612901613711565b141561294f5760405162461bcd60e51b815260206004820152601860248201527f45434453413a20696e76616c6964207369676e617475726500000000000000006044820152606401610857565b600281600481111561296357612963613711565b14156129b15760405162461bcd60e51b815260206004820152601f60248201527f45434453413a20696e76616c6964207369676e6174757265206c656e677468006044820152606401610857565b60038160048111156129c5576129c5613711565b1415612a1e5760405162461bcd60e51b815260206004820152602260248201527f45434453413a20696e76616c6964207369676e6174757265202773272076616c604482015261756560f01b6064820152608401610857565b6004816004811115612a3257612a32613711565b141561094f5760405162461bcd60e51b815260206004820152602260248201527f45434453413a20696e76616c6964207369676e6174757265202776272076616c604482015261756560f01b6064820152608401610857565b6001600160a01b038316612aaa57612aa282612f24565b610c69612f57565b6001600160a01b038216612ac157612aa283612f24565b612aca83612f24565b610c6982612f24565b6001600160a01b0383811660009081526101946020526040808220548584168352912054610c69929182169116836123b3565b60608315612b15575081610873565b825115612b255782518084602001fd5b8160405162461bcd60e51b8152600401610857919061311c565b6001600160a01b038216612b955760405162461bcd60e51b815260206004820152601f60248201527f45524332303a206d696e7420746f20746865207a65726f2061646472657373006044820152606401610857565b612ba160008383612003565b8060356000828254612bb39190613501565b90915550506001600160a01b03821660009081526033602052604081208054839290612be0908490613501565b90915550506040518181526001600160a01b038316906000907fddf252ad1be2c89b69c2b068fc378daa952ba7f163c4a11628f55a4df523b3ef9060200160405180910390a3610a6a60008383612054565b60006108738284613501565b825460009081908015612c895785612c576001836136a6565b81548110612c6757612c676136bd565b60009182526020909120015464010000000090046001600160e01b0316612c8c565b60005b6001600160e01b03169250612ca583858763ffffffff16565b9150600081118015612ce357504386612cbf6001846136a6565b81548110612ccf57612ccf6136bd565b60009182526020909120015463ffffffff16145b15612d4357612cf182612f65565b86612cfd6001846136a6565b81548110612d0d57612d0d6136bd565b9060005260206000200160000160046101000a8154816001600160e01b0302191690836001600160e01b03160217905550612dae565b856040518060400160405280612d5843611b80565b63ffffffff168152602001612d6c85612f65565b6001600160e01b0390811690915282546001810184556000938452602093849020835194909301519091166401000000000263ffffffff909316929092179101555b50935093915050565b6001600160a01b038216612e175760405162461bcd60e51b815260206004820152602160248201527f45524332303a206275726e2066726f6d20746865207a65726f206164647265736044820152607360f81b6064820152608401610857565b612e2382600083612003565b6001600160a01b03821660009081526033602052604090205481811015612e975760405162461bcd60e51b815260206004820152602260248201527f45524332303a206275726e20616d6f756e7420657863656564732062616c616e604482015261636560f01b6064820152608401610857565b6001600160a01b0383166000908152603360205260408120838303905560358054849290612ec69084906136a6565b90915550506040518281526000906001600160a01b038516907fddf252ad1be2c89b69c2b068fc378daa952ba7f163c4a11628f55a4df523b3ef9060200160405180910390a3610c6983600084612054565b600061087382846136a6565b6001600160a01b038116600090815260976020908152604080832060339092529091205461094f9190612fce565b612fce565b610a346098612f5260355490565b60006001600160e01b03821115611be55760405162461bcd60e51b815260206004820152602760248201527f53616665436173743a2076616c756520646f65736e27742066697420696e20326044820152663234206269747360c81b6064820152608401610857565b6000612fd86122e5565b905080612fe484613018565b1015610c69578254600180820185556000858152602080822090930193909355938401805494850181558252902090910155565b805460009061302957506000919050565b81548290613039906001906136a6565b81548110613049576130496136bd565b90600052602060002001549050919050565b919050565b82805461306c9061341e565b90600052602060002090601f01602090048101928261308e57600085556130d4565b82601f106130a757805160ff19168380011785556130d4565b828001600101855582156130d4579182015b828111156130d45782518255916020019190600101906130b9565b50611be59291505b80821115611be557600081556001016130dc565b60005b8381101561310b5781810151838201526020016130f3565b8381111561167e5750506000910152565b602081526000825180602084015261313b8160408501602087016130f0565b601f01601f19169190910160400192915050565b80356001600160a01b038116811461305b57600080fd5b6000806040838503121561317957600080fd5b6131828361314f565b946020939093013593505050565b6000806000606084860312156131a557600080fd5b6131ae8461314f565b92506131bc6020850161314f565b9150604084013590509250925092565b6000602082840312156131de57600080fd5b6108738261314f565b6000602082840312156131f957600080fd5b5035919050565b634e487b7160e01b600052604160045260246000fd5b6000806040838503121561322957600080fd5b6132328361314f565b9150602083013567ffffffffffffffff8082111561324f57600080fd5b818501915085601f83011261326357600080fd5b81358181111561327557613275613200565b604051601f8201601f19908116603f0116810190838211818310171561329d5761329d613200565b816040528281528860208487010111156132b657600080fd5b8260208601602083013760006020848301015280955050505050509250929050565b803560ff8116811461305b57600080fd5b60008060008060008060c0878903121561330257600080fd5b61330b8761314f565b95506020870135945060408701359350613327606088016132d8565b92506080870135915060a087013590509295509295509295565b600080600080600080600060e0888a03121561335c57600080fd5b6133658861314f565b96506133736020890161314f565b9550604088013594506060880135935061338f608089016132d8565b925060a0880135915060c0880135905092959891949750929550565b600080604083850312156133be57600080fd5b6133c78361314f565b91506133d56020840161314f565b90509250929050565b600080604083850312156133f157600080fd5b6133fa8361314f565b9150602083013563ffffffff8116811461341357600080fd5b809150509250929050565b600181811c9082168061343257607f821691505b60208210811415611ffd57634e487b7160e01b600052602260045260246000fd5b6020808252602c908201527f46756e6374696f6e206d7573742062652063616c6c6564207468726f7567682060408201526b19195b1959d85d1958d85b1b60a21b606082015260800190565b6020808252602c908201527f46756e6374696f6e206d7573742062652063616c6c6564207468726f7567682060408201526b6163746976652070726f787960a01b606082015260800190565b634e487b7160e01b600052601160045260246000fd5b60008219821115613514576135146134eb565b500190565b6020808252818101527f4f776e61626c653a2063616c6c6572206973206e6f7420746865206f776e6572604082015260600190565b6020808252602e908201527f496e697469616c697a61626c653a20636f6e747261637420697320616c72656160408201526d191e481a5b9a5d1a585b1a5e995960921b606082015260800190565b600181815b80851115611afc5781600019048211156135bd576135bd6134eb565b808516156135ca57918102915b93841c93908002906135a1565b6000826135e6575060016107c3565b816135f3575060006107c3565b816001811461360957600281146136135761362f565b60019150506107c3565b60ff841115613624576136246134eb565b50506001821b6107c3565b5060208310610133831016604e8410600b8410161715613652575081810a6107c3565b61365c838361359c565b8060001904821115613670576136706134eb565b029392505050565b600061087360ff8416836135d7565b60008160001904831182151516156136a1576136a16134eb565b500290565b6000828210156136b8576136b86134eb565b500390565b634e487b7160e01b600052603260045260246000fd5b600082516136e58184602087016130f0565b9190910192915050565b60008261370c57634e487b7160e01b600052601260045260246000fd5b500490565b634e487b7160e01b600052602160045260246000fdfe416464726573733a206c6f772d6c6576656c2064656c65676174652063616c6c206661696c6564a2646970667358221220adcbdf4f287c1b30f2eb20813d0cb74be6b8d59517cce4452a441644404a69b564736f6c634300080a0033",
  "immutableReferences": {
    "613": [
      {
        "length": 32,
        "start": 2196
      },
      {
        "length": 32,
        "start": 2260
      },
      {
        "length": 32,
        "start": 2780
      },
      {
        "length": 32,
        "start": 2844
      }
    ]
  },
  "source": "// SPDX-License-Identifier: MIT\npragma solidity ^0.8.2;\n\nimport \"@openzeppelin/contracts-upgradeable/token/ERC20/ERC20Upgradeable.sol\";\nimport \"@openzeppelin/contracts-upgradeable/token/ERC20/extensions/ERC20BurnableUpgradeable.sol\";\nimport \"@openzeppelin/contracts-upgradeable/token/ERC20/extensions/ERC20SnapshotUpgradeable.sol\";\nimport \"@openzeppelin/contracts-upgradeable/access/OwnableUpgradeable.sol\";\nimport \"@openzeppelin/contracts-upgradeable/security/PausableUpgradeable.sol\";\nimport \"@openzeppelin/contracts-upgradeable/token/ERC20/extensions/draft-ERC20PermitUpgradeable.sol\";\nimport \"@openzeppelin/contracts-upgradeable/token/ERC20/extensions/ERC20VotesUpgradeable.sol\";\nimport \"@openzeppelin/contracts-upgradeable/proxy/utils/Initializable.sol\";\nimport \"@openzeppelin/contracts-upgradeable/proxy/utils/UUPSUpgradeable.sol\";\n\n/// @custom:security-contact prasad@chainscore.finance\ncontract ChainScore is Initializable, ERC20Upgradeable, ERC20BurnableUpgradeable, ERC20SnapshotUpgradeable, OwnableUpgradeable, PausableUpgradeable, ERC20PermitUpgradeable, ERC20VotesUpgradeable, UUPSUpgradeable {\n    /// @custom:oz-upgrades-unsafe-allow constructor\n    // constructor() initializer {}\n\n    function initialize() initializer public {\n        __ERC20_init(\"ChainScore\", \"SCORE\");\n        __ERC20Burnable_init();\n        __ERC20Snapshot_init();\n        __Ownable_init();\n        __Pausable_init();\n        __ERC20Permit_init(\"ChainScore\");\n        __UUPSUpgradeable_init();\n\n        _mint(msg.sender, 1000000000 * 10 ** decimals());\n    }\n\n    function snapshot() public onlyOwner {\n        _snapshot();\n    }\n\n    function pause() public onlyOwner {\n        _pause();\n    }\n\n    function unpause() public onlyOwner {\n        _unpause();\n    }\n\n    function mint(address to, uint256 amount) public onlyOwner {\n        _mint(to, amount);\n    }\n\n    function _beforeTokenTransfer(address from, address to, uint256 amount)\n        internal\n        whenNotPaused\n        override(ERC20Upgradeable, ERC20SnapshotUpgradeable)\n    {\n        super._beforeTokenTransfer(from, to, amount);\n    }\n\n    function _authorizeUpgrade(address newImplementation)\n        internal\n        onlyOwner\n        override\n    {}\n\n    // The following functions are overrides required by Solidity.\n\n    function _afterTokenTransfer(address from, address to, uint256 amount)\n        internal\n        override(ERC20Upgradeable, ERC20VotesUpgradeable)\n    {\n        super._afterTokenTransfer(from, to, amount);\n    }\n\n    function _mint(address to, uint256 amount)\n        internal\n        override(ERC20Upgradeable, ERC20VotesUpgradeable)\n    {\n        super._mint(to, amount);\n    }\n\n    function _burn(address account, uint256 amount)\n        internal\n        override(ERC20Upgradeable, ERC20VotesUpgradeable)\n    {\n        super._burn(account, amount);\n    }\n}\n",
  "sourcePath": "/Users/prasad/projects/chainscore/token/contracts/SCORE.sol",
  "compiler": {
    "name": "solc",
    "version": "0.8.10+commit.fc410830.Emscripten.clang"
  },
  "schemaVersion": "3.4.3",
  "updatedAt": "2021-11-29T13:54:52.596Z",
  "networkType": "ethereum",
  "devdoc": {
    "custom:security-contact": "prasad@chainscore.finance",
    "kind": "dev",
    "methods": {
      "DOMAIN_SEPARATOR()": {
        "details": "See {IERC20Permit-DOMAIN_SEPARATOR}."
      },
      "allowance(address,address)": {
        "details": "See {IERC20-allowance}."
      },
      "approve(address,uint256)": {
        "details": "See {IERC20-approve}. Requirements: - `spender` cannot be the zero address."
      },
      "balanceOf(address)": {
        "details": "See {IERC20-balanceOf}."
      },
      "balanceOfAt(address,uint256)": {
        "details": "Retrieves the balance of `account` at the time `snapshotId` was created."
      },
      "burn(uint256)": {
        "details": "Destroys `amount` tokens from the caller. See {ERC20-_burn}."
      },
      "burnFrom(address,uint256)": {
        "details": "Destroys `amount` tokens from `account`, deducting from the caller's allowance. See {ERC20-_burn} and {ERC20-allowance}. Requirements: - the caller must have allowance for ``accounts``'s tokens of at least `amount`."
      },
      "checkpoints(address,uint32)": {
        "details": "Get the `pos`-th checkpoint for `account`."
      },
      "decimals()": {
        "details": "Returns the number of decimals used to get its user representation. For example, if `decimals` equals `2`, a balance of `505` tokens should be displayed to a user as `5.05` (`505 / 10 ** 2`). Tokens usually opt for a value of 18, imitating the relationship between Ether and Wei. This is the value {ERC20} uses, unless this function is overridden; NOTE: This information is only used for _display_ purposes: it in no way affects any of the arithmetic of the contract, including {IERC20-balanceOf} and {IERC20-transfer}."
      },
      "decreaseAllowance(address,uint256)": {
        "details": "Atomically decreases the allowance granted to `spender` by the caller. This is an alternative to {approve} that can be used as a mitigation for problems described in {IERC20-approve}. Emits an {Approval} event indicating the updated allowance. Requirements: - `spender` cannot be the zero address. - `spender` must have allowance for the caller of at least `subtractedValue`."
      },
      "delegate(address)": {
        "details": "Delegate votes from the sender to `delegatee`."
      },
      "delegateBySig(address,uint256,uint256,uint8,bytes32,bytes32)": {
        "details": "Delegates votes from signer to `delegatee`"
      },
      "delegates(address)": {
        "details": "Get the address `account` is currently delegating to."
      },
      "getPastTotalSupply(uint256)": {
        "details": "Retrieve the `totalSupply` at the end of `blockNumber`. Note, this value is the sum of all balances. It is but NOT the sum of all the delegated votes! Requirements: - `blockNumber` must have been already mined"
      },
      "getPastVotes(address,uint256)": {
        "details": "Retrieve the number of votes for `account` at the end of `blockNumber`. Requirements: - `blockNumber` must have been already mined"
      },
      "getVotes(address)": {
        "details": "Gets the current votes balance for `account`"
      },
      "increaseAllowance(address,uint256)": {
        "details": "Atomically increases the allowance granted to `spender` by the caller. This is an alternative to {approve} that can be used as a mitigation for problems described in {IERC20-approve}. Emits an {Approval} event indicating the updated allowance. Requirements: - `spender` cannot be the zero address."
      },
      "initialize()": {
        "custom:oz-upgrades-unsafe-allow": "constructor"
      },
      "name()": {
        "details": "Returns the name of the token."
      },
      "nonces(address)": {
        "details": "See {IERC20Permit-nonces}."
      },
      "numCheckpoints(address)": {
        "details": "Get number of checkpoints for `account`."
      },
      "owner()": {
        "details": "Returns the address of the current owner."
      },
      "paused()": {
        "details": "Returns true if the contract is paused, and false otherwise."
      },
      "permit(address,address,uint256,uint256,uint8,bytes32,bytes32)": {
        "details": "See {IERC20Permit-permit}."
      },
      "renounceOwnership()": {
        "details": "Leaves the contract without owner. It will not be possible to call `onlyOwner` functions anymore. Can only be called by the current owner. NOTE: Renouncing ownership will leave the contract without an owner, thereby removing any functionality that is only available to the owner."
      },
      "symbol()": {
        "details": "Returns the symbol of the token, usually a shorter version of the name."
      },
      "totalSupply()": {
        "details": "See {IERC20-totalSupply}."
      },
      "totalSupplyAt(uint256)": {
        "details": "Retrieves the total supply at the time `snapshotId` was created."
      },
      "transfer(address,uint256)": {
        "details": "See {IERC20-transfer}. Requirements: - `recipient` cannot be the zero address. - the caller must have a balance of at least `amount`."
      },
      "transferFrom(address,address,uint256)": {
        "details": "See {IERC20-transferFrom}. Emits an {Approval} event indicating the updated allowance. This is not required by the EIP. See the note at the beginning of {ERC20}. Requirements: - `sender` and `recipient` cannot be the zero address. - `sender` must have a balance of at least `amount`. - the caller must have allowance for ``sender``'s tokens of at least `amount`."
      },
      "transferOwnership(address)": {
        "details": "Transfers ownership of the contract to a new account (`newOwner`). Can only be called by the current owner."
      },
      "upgradeTo(address)": {
        "details": "Upgrade the implementation of the proxy to `newImplementation`. Calls {_authorizeUpgrade}. Emits an {Upgraded} event."
      },
      "upgradeToAndCall(address,bytes)": {
        "details": "Upgrade the implementation of the proxy to `newImplementation`, and subsequently execute the function call encoded in `data`. Calls {_authorizeUpgrade}. Emits an {Upgraded} event."
      }
    },
    "version": 1
  },
  "userdoc": {
    "kind": "user",
    "methods": {},
    "version": 1
  }
}