{
  "contractName": "ChainScore",
  "abi": [
    {
      "anonymous": false,
      "inputs": [
        {
          "indexed": false,
          "internalType": "address",
          "name": "previousAdmin",
          "type": "address"
        },
        {
          "indexed": false,
          "internalType": "address",
          "name": "newAdmin",
          "type": "address"
        }
      ],
      "name": "AdminChanged",
      "type": "event"
    },
    {
      "anonymous": false,
      "inputs": [
        {
          "indexed": true,
          "internalType": "address",
          "name": "owner",
          "type": "address"
        },
        {
          "indexed": true,
          "internalType": "address",
          "name": "spender",
          "type": "address"
        },
        {
          "indexed": false,
          "internalType": "uint256",
          "name": "value",
          "type": "uint256"
        }
      ],
      "name": "Approval",
      "type": "event"
    },
    {
      "anonymous": false,
      "inputs": [
        {
          "indexed": true,
          "internalType": "address",
          "name": "beacon",
          "type": "address"
        }
      ],
      "name": "BeaconUpgraded",
      "type": "event"
    },
    {
      "anonymous": false,
      "inputs": [
        {
          "indexed": true,
          "internalType": "address",
          "name": "delegator",
          "type": "address"
        },
        {
          "indexed": true,
          "internalType": "address",
          "name": "fromDelegate",
          "type": "address"
        },
        {
          "indexed": true,
          "internalType": "address",
          "name": "toDelegate",
          "type": "address"
        }
      ],
      "name": "DelegateChanged",
      "type": "event"
    },
    {
      "anonymous": false,
      "inputs": [
        {
          "indexed": true,
          "internalType": "address",
          "name": "delegate",
          "type": "address"
        },
        {
          "indexed": false,
          "internalType": "uint256",
          "name": "previousBalance",
          "type": "uint256"
        },
        {
          "indexed": false,
          "internalType": "uint256",
          "name": "newBalance",
          "type": "uint256"
        }
      ],
      "name": "DelegateVotesChanged",
      "type": "event"
    },
    {
      "anonymous": false,
      "inputs": [
        {
          "indexed": true,
          "internalType": "address",
          "name": "previousOwner",
          "type": "address"
        },
        {
          "indexed": true,
          "internalType": "address",
          "name": "newOwner",
          "type": "address"
        }
      ],
      "name": "OwnershipTransferred",
      "type": "event"
    },
    {
      "anonymous": false,
      "inputs": [
        {
          "indexed": false,
          "internalType": "address",
          "name": "account",
          "type": "address"
        }
      ],
      "name": "Paused",
      "type": "event"
    },
    {
      "anonymous": false,
      "inputs": [
        {
          "indexed": false,
          "internalType": "uint256",
          "name": "id",
          "type": "uint256"
        }
      ],
      "name": "Snapshot",
      "type": "event"
    },
    {
      "anonymous": false,
      "inputs": [
        {
          "indexed": true,
          "internalType": "address",
          "name": "from",
          "type": "address"
        },
        {
          "indexed": true,
          "internalType": "address",
          "name": "to",
          "type": "address"
        },
        {
          "indexed": false,
          "internalType": "uint256",
          "name": "value",
          "type": "uint256"
        },
        {
          "indexed": false,
          "internalType": "bytes",
          "name": "data",
          "type": "bytes"
        }
      ],
      "name": "Transfer",
      "type": "event"
    },
    {
      "anonymous": false,
      "inputs": [
        {
          "indexed": true,
          "internalType": "address",
          "name": "from",
          "type": "address"
        },
        {
          "indexed": true,
          "internalType": "address",
          "name": "to",
          "type": "address"
        },
        {
          "indexed": false,
          "internalType": "uint256",
          "name": "value",
          "type": "uint256"
        }
      ],
      "name": "Transfer",
      "type": "event"
    },
    {
      "anonymous": false,
      "inputs": [
        {
          "indexed": false,
          "internalType": "address",
          "name": "account",
          "type": "address"
        }
      ],
      "name": "Unpaused",
      "type": "event"
    },
    {
      "anonymous": false,
      "inputs": [
        {
          "indexed": true,
          "internalType": "address",
          "name": "implementation",
          "type": "address"
        }
      ],
      "name": "Upgraded",
      "type": "event"
    },
    {
      "inputs": [],
      "name": "DOMAIN_SEPARATOR",
      "outputs": [
        {
          "internalType": "bytes32",
          "name": "",
          "type": "bytes32"
        }
      ],
      "stateMutability": "view",
      "type": "function",
      "constant": true
    },
    {
      "inputs": [
        {
          "internalType": "address",
          "name": "owner",
          "type": "address"
        },
        {
          "internalType": "address",
          "name": "spender",
          "type": "address"
        }
      ],
      "name": "allowance",
      "outputs": [
        {
          "internalType": "uint256",
          "name": "",
          "type": "uint256"
        }
      ],
      "stateMutability": "view",
      "type": "function",
      "constant": true
    },
    {
      "inputs": [
        {
          "internalType": "address",
          "name": "spender",
          "type": "address"
        },
        {
          "internalType": "uint256",
          "name": "amount",
          "type": "uint256"
        }
      ],
      "name": "approve",
      "outputs": [
        {
          "internalType": "bool",
          "name": "",
          "type": "bool"
        }
      ],
      "stateMutability": "nonpayable",
      "type": "function"
    },
    {
      "inputs": [
        {
          "internalType": "address",
          "name": "account",
          "type": "address"
        }
      ],
      "name": "balanceOf",
      "outputs": [
        {
          "internalType": "uint256",
          "name": "",
          "type": "uint256"
        }
      ],
      "stateMutability": "view",
      "type": "function",
      "constant": true
    },
    {
      "inputs": [
        {
          "internalType": "address",
          "name": "account",
          "type": "address"
        },
        {
          "internalType": "uint256",
          "name": "snapshotId",
          "type": "uint256"
        }
      ],
      "name": "balanceOfAt",
      "outputs": [
        {
          "internalType": "uint256",
          "name": "",
          "type": "uint256"
        }
      ],
      "stateMutability": "view",
      "type": "function",
      "constant": true
    },
    {
      "inputs": [
        {
          "internalType": "uint256",
          "name": "amount",
          "type": "uint256"
        }
      ],
      "name": "burn",
      "outputs": [],
      "stateMutability": "nonpayable",
      "type": "function"
    },
    {
      "inputs": [
        {
          "internalType": "address",
          "name": "account",
          "type": "address"
        },
        {
          "internalType": "uint256",
          "name": "amount",
          "type": "uint256"
        }
      ],
      "name": "burnFrom",
      "outputs": [],
      "stateMutability": "nonpayable",
      "type": "function"
    },
    {
      "inputs": [
        {
          "internalType": "address",
          "name": "account",
          "type": "address"
        },
        {
          "internalType": "uint32",
          "name": "pos",
          "type": "uint32"
        }
      ],
      "name": "checkpoints",
      "outputs": [
        {
          "components": [
            {
              "internalType": "uint32",
              "name": "fromBlock",
              "type": "uint32"
            },
            {
              "internalType": "uint224",
              "name": "votes",
              "type": "uint224"
            }
          ],
          "internalType": "struct ERC20VotesUpgradeable.Checkpoint",
          "name": "",
          "type": "tuple"
        }
      ],
      "stateMutability": "view",
      "type": "function",
      "constant": true
    },
    {
      "inputs": [],
      "name": "decimals",
      "outputs": [
        {
          "internalType": "uint8",
          "name": "",
          "type": "uint8"
        }
      ],
      "stateMutability": "view",
      "type": "function",
      "constant": true
    },
    {
      "inputs": [
        {
          "internalType": "address",
          "name": "spender",
          "type": "address"
        },
        {
          "internalType": "uint256",
          "name": "subtractedValue",
          "type": "uint256"
        }
      ],
      "name": "decreaseAllowance",
      "outputs": [
        {
          "internalType": "bool",
          "name": "",
          "type": "bool"
        }
      ],
      "stateMutability": "nonpayable",
      "type": "function"
    },
    {
      "inputs": [
        {
          "internalType": "address",
          "name": "delegatee",
          "type": "address"
        }
      ],
      "name": "delegate",
      "outputs": [],
      "stateMutability": "nonpayable",
      "type": "function"
    },
    {
      "inputs": [
        {
          "internalType": "address",
          "name": "delegatee",
          "type": "address"
        },
        {
          "internalType": "uint256",
          "name": "nonce",
          "type": "uint256"
        },
        {
          "internalType": "uint256",
          "name": "expiry",
          "type": "uint256"
        },
        {
          "internalType": "uint8",
          "name": "v",
          "type": "uint8"
        },
        {
          "internalType": "bytes32",
          "name": "r",
          "type": "bytes32"
        },
        {
          "internalType": "bytes32",
          "name": "s",
          "type": "bytes32"
        }
      ],
      "name": "delegateBySig",
      "outputs": [],
      "stateMutability": "nonpayable",
      "type": "function"
    },
    {
      "inputs": [
        {
          "internalType": "address",
          "name": "account",
          "type": "address"
        }
      ],
      "name": "delegates",
      "outputs": [
        {
          "internalType": "address",
          "name": "",
          "type": "address"
        }
      ],
      "stateMutability": "view",
      "type": "function",
      "constant": true
    },
    {
      "inputs": [
        {
          "internalType": "uint256",
          "name": "blockNumber",
          "type": "uint256"
        }
      ],
      "name": "getPastTotalSupply",
      "outputs": [
        {
          "internalType": "uint256",
          "name": "",
          "type": "uint256"
        }
      ],
      "stateMutability": "view",
      "type": "function",
      "constant": true
    },
    {
      "inputs": [
        {
          "internalType": "address",
          "name": "account",
          "type": "address"
        },
        {
          "internalType": "uint256",
          "name": "blockNumber",
          "type": "uint256"
        }
      ],
      "name": "getPastVotes",
      "outputs": [
        {
          "internalType": "uint256",
          "name": "",
          "type": "uint256"
        }
      ],
      "stateMutability": "view",
      "type": "function",
      "constant": true
    },
    {
      "inputs": [
        {
          "internalType": "address",
          "name": "account",
          "type": "address"
        }
      ],
      "name": "getVotes",
      "outputs": [
        {
          "internalType": "uint256",
          "name": "",
          "type": "uint256"
        }
      ],
      "stateMutability": "view",
      "type": "function",
      "constant": true
    },
    {
      "inputs": [
        {
          "internalType": "address",
          "name": "spender",
          "type": "address"
        },
        {
          "internalType": "uint256",
          "name": "addedValue",
          "type": "uint256"
        }
      ],
      "name": "increaseAllowance",
      "outputs": [
        {
          "internalType": "bool",
          "name": "",
          "type": "bool"
        }
      ],
      "stateMutability": "nonpayable",
      "type": "function"
    },
    {
      "inputs": [],
      "name": "name",
      "outputs": [
        {
          "internalType": "string",
          "name": "",
          "type": "string"
        }
      ],
      "stateMutability": "view",
      "type": "function",
      "constant": true
    },
    {
      "inputs": [
        {
          "internalType": "address",
          "name": "owner",
          "type": "address"
        }
      ],
      "name": "nonces",
      "outputs": [
        {
          "internalType": "uint256",
          "name": "",
          "type": "uint256"
        }
      ],
      "stateMutability": "view",
      "type": "function",
      "constant": true
    },
    {
      "inputs": [
        {
          "internalType": "address",
          "name": "account",
          "type": "address"
        }
      ],
      "name": "numCheckpoints",
      "outputs": [
        {
          "internalType": "uint32",
          "name": "",
          "type": "uint32"
        }
      ],
      "stateMutability": "view",
      "type": "function",
      "constant": true
    },
    {
      "inputs": [],
      "name": "owner",
      "outputs": [
        {
          "internalType": "address",
          "name": "",
          "type": "address"
        }
      ],
      "stateMutability": "view",
      "type": "function",
      "constant": true
    },
    {
      "inputs": [],
      "name": "paused",
      "outputs": [
        {
          "internalType": "bool",
          "name": "",
          "type": "bool"
        }
      ],
      "stateMutability": "view",
      "type": "function",
      "constant": true
    },
    {
      "inputs": [
        {
          "internalType": "address",
          "name": "owner",
          "type": "address"
        },
        {
          "internalType": "address",
          "name": "spender",
          "type": "address"
        },
        {
          "internalType": "uint256",
          "name": "value",
          "type": "uint256"
        },
        {
          "internalType": "uint256",
          "name": "deadline",
          "type": "uint256"
        },
        {
          "internalType": "uint8",
          "name": "v",
          "type": "uint8"
        },
        {
          "internalType": "bytes32",
          "name": "r",
          "type": "bytes32"
        },
        {
          "internalType": "bytes32",
          "name": "s",
          "type": "bytes32"
        }
      ],
      "name": "permit",
      "outputs": [],
      "stateMutability": "nonpayable",
      "type": "function"
    },
    {
      "inputs": [],
      "name": "renounceOwnership",
      "outputs": [],
      "stateMutability": "nonpayable",
      "type": "function"
    },
    {
      "inputs": [],
      "name": "symbol",
      "outputs": [
        {
          "internalType": "string",
          "name": "",
          "type": "string"
        }
      ],
      "stateMutability": "view",
      "type": "function",
      "constant": true
    },
    {
      "inputs": [],
      "name": "totalSupply",
      "outputs": [
        {
          "internalType": "uint256",
          "name": "",
          "type": "uint256"
        }
      ],
      "stateMutability": "view",
      "type": "function",
      "constant": true
    },
    {
      "inputs": [
        {
          "internalType": "uint256",
          "name": "snapshotId",
          "type": "uint256"
        }
      ],
      "name": "totalSupplyAt",
      "outputs": [
        {
          "internalType": "uint256",
          "name": "",
          "type": "uint256"
        }
      ],
      "stateMutability": "view",
      "type": "function",
      "constant": true
    },
    {
      "inputs": [
        {
          "internalType": "address",
          "name": "recipient",
          "type": "address"
        },
        {
          "internalType": "uint256",
          "name": "amount",
          "type": "uint256"
        }
      ],
      "name": "transfer",
      "outputs": [
        {
          "internalType": "bool",
          "name": "",
          "type": "bool"
        }
      ],
      "stateMutability": "nonpayable",
      "type": "function"
    },
    {
      "inputs": [
        {
          "internalType": "address",
          "name": "_to",
          "type": "address"
        },
        {
          "internalType": "uint256",
          "name": "_value",
          "type": "uint256"
        },
        {
          "internalType": "bytes",
          "name": "_data",
          "type": "bytes"
        }
      ],
      "name": "transferAndCall",
      "outputs": [
        {
          "internalType": "bool",
          "name": "success",
          "type": "bool"
        }
      ],
      "stateMutability": "nonpayable",
      "type": "function"
    },
    {
      "inputs": [
        {
          "internalType": "address",
          "name": "sender",
          "type": "address"
        },
        {
          "internalType": "address",
          "name": "recipient",
          "type": "address"
        },
        {
          "internalType": "uint256",
          "name": "amount",
          "type": "uint256"
        }
      ],
      "name": "transferFrom",
      "outputs": [
        {
          "internalType": "bool",
          "name": "",
          "type": "bool"
        }
      ],
      "stateMutability": "nonpayable",
      "type": "function"
    },
    {
      "inputs": [
        {
          "internalType": "address",
          "name": "newOwner",
          "type": "address"
        }
      ],
      "name": "transferOwnership",
      "outputs": [],
      "stateMutability": "nonpayable",
      "type": "function"
    },
    {
      "inputs": [
        {
          "internalType": "address",
          "name": "newImplementation",
          "type": "address"
        }
      ],
      "name": "upgradeTo",
      "outputs": [],
      "stateMutability": "nonpayable",
      "type": "function"
    },
    {
      "inputs": [
        {
          "internalType": "address",
          "name": "newImplementation",
          "type": "address"
        },
        {
          "internalType": "bytes",
          "name": "data",
          "type": "bytes"
        }
      ],
      "name": "upgradeToAndCall",
      "outputs": [],
      "stateMutability": "payable",
      "type": "function",
      "payable": true
    },
    {
      "inputs": [],
      "name": "initialize",
      "outputs": [],
      "stateMutability": "nonpayable",
      "type": "function"
    },
    {
      "inputs": [],
      "name": "snapshot",
      "outputs": [],
      "stateMutability": "nonpayable",
      "type": "function"
    },
    {
      "inputs": [],
      "name": "pause",
      "outputs": [],
      "stateMutability": "nonpayable",
      "type": "function"
    },
    {
      "inputs": [],
      "name": "unpause",
      "outputs": [],
      "stateMutability": "nonpayable",
      "type": "function"
    },
    {
      "inputs": [
        {
          "internalType": "address",
          "name": "to",
          "type": "address"
        },
        {
          "internalType": "uint256",
          "name": "amount",
          "type": "uint256"
        }
      ],
      "name": "mint",
      "outputs": [],
      "stateMutability": "nonpayable",
      "type": "function"
    }
  ],
  "bytecode": "0x60a06040523060805234801561001457600080fd5b506080516139a7610045600039600081816108bf015281816108ff01528181610b7d0152610bbd01526139a76000f3fe6080604052600436106102255760003560e01c806370a08231116101235780639711715a116100ab578063c3cda5201161006f578063c3cda5201461065b578063d505accf1461067b578063dd62ed3e1461069b578063f1127ed8146106e1578063f2fde38b1461072b57600080fd5b80639711715a146105c6578063981b24d0146105db5780639ab24eb0146105fb578063a457c2d71461061b578063a9059cbb1461063b57600080fd5b80638129fc1c116100f25780638129fc1c146105495780638456cb591461055e5780638da5cb5b146105735780638e539e8c1461059157806395d89b41146105b157600080fd5b806370a08231146104be578063715018a6146104f457806379cc6790146105095780637ecebe001461052957600080fd5b80633f4ba83a116101b15780634f1ef286116101755780634f1ef286146103ec578063587cde1e146103ff5780635c19a95c146104515780635c975abb146104715780636fcfff451461048957600080fd5b80633f4ba83a146103575780634000aea01461036c57806340c10f191461038c57806342966c68146103ac5780634ee2cd7e146103cc57600080fd5b8063313ce567116101f8578063313ce567146102c45780633644e515146102e05780633659cfe6146102f557806339509351146103175780633a46b1a81461033757600080fd5b806306fdde031461022a578063095ea7b31461025557806318160ddd1461028557806323b872dd146102a4575b600080fd5b34801561023657600080fd5b5061023f61074b565b60405161024c91906132af565b60405180910390f35b34801561026157600080fd5b506102756102703660046132d9565b6107dd565b604051901515815260200161024c565b34801561029157600080fd5b506035545b60405190815260200161024c565b3480156102b057600080fd5b506102756102bf366004613303565b6107f4565b3480156102d057600080fd5b506040516012815260200161024c565b3480156102ec57600080fd5b506102966108a5565b34801561030157600080fd5b5061031561031036600461333f565b6108b4565b005b34801561032357600080fd5b506102756103323660046132d9565b61097d565b34801561034357600080fd5b506102966103523660046132d9565b6109b9565b34801561036357600080fd5b50610315610a2d565b34801561037857600080fd5b506102756103873660046133fd565b610a61565b34801561039857600080fd5b506103156103a73660046132d9565b610ad7565b3480156103b857600080fd5b506103156103c7366004613454565b610b0f565b3480156103d857600080fd5b506102966103e73660046132d9565b610b19565b6103156103fa36600461346d565b610b72565b34801561040b57600080fd5b5061043961041a36600461333f565b6001600160a01b03908116600090815261019460205260409020541690565b6040516001600160a01b03909116815260200161024c565b34801561045d57600080fd5b5061031561046c36600461333f565b610c28565b34801561047d57600080fd5b5060fb5460ff16610275565b34801561049557600080fd5b506104a96104a436600461333f565b610c32565b60405163ffffffff909116815260200161024c565b3480156104ca57600080fd5b506102966104d936600461333f565b6001600160a01b031660009081526033602052604090205490565b34801561050057600080fd5b50610315610c55565b34801561051557600080fd5b506103156105243660046132d9565b610c89565b34801561053557600080fd5b5061029661054436600461333f565b610d0f565b34801561055557600080fd5b50610315610d2e565b34801561056a57600080fd5b50610315610e60565b34801561057f57600080fd5b5060c9546001600160a01b0316610439565b34801561059d57600080fd5b506102966105ac366004613454565b610e92565b3480156105bd57600080fd5b5061023f610eef565b3480156105d257600080fd5b50610315610efe565b3480156105e757600080fd5b506102966105f6366004613454565b610f30565b34801561060757600080fd5b5061029661061636600461333f565b610f5b565b34801561062757600080fd5b506102756106363660046132d9565b610fe4565b34801561064757600080fd5b506102756106563660046132d9565b611073565b34801561066757600080fd5b506103156106763660046134cc565b611080565b34801561068757600080fd5b50610315610696366004613524565b6111b6565b3480156106a757600080fd5b506102966106b636600461358e565b6001600160a01b03918216600090815260346020908152604080832093909416825291909152205490565b3480156106ed57600080fd5b506107016106fc3660046135c1565b6112fd565b60408051825163ffffffff1681526020928301516001600160e01b0316928101929092520161024c565b34801561073757600080fd5b5061031561074636600461333f565b611382565b60606036805461075a90613601565b80601f016020809104026020016040519081016040528092919081815260200182805461078690613601565b80156107d35780601f106107a8576101008083540402835291602001916107d3565b820191906000526020600020905b8154815290600101906020018083116107b657829003601f168201915b5050505050905090565b60006107ea33848461141a565b5060015b92915050565b600061080184848461153e565b6001600160a01b03841660009081526034602090815260408083203384529091529020548281101561088b5760405162461bcd60e51b815260206004820152602860248201527f45524332303a207472616e7366657220616d6f756e74206578636565647320616044820152676c6c6f77616e636560c01b60648201526084015b60405180910390fd5b610898853385840361141a565b60019150505b9392505050565b60006108af611723565b905090565b306001600160a01b037f00000000000000000000000000000000000000000000000000000000000000001614156108fd5760405162461bcd60e51b815260040161088290613636565b7f00000000000000000000000000000000000000000000000000000000000000006001600160a01b031661092f6117a0565b6001600160a01b0316146109555760405162461bcd60e51b815260040161088290613682565b61095e816117ce565b6040805160008082526020820190925261097a918391906117f8565b50565b3360008181526034602090815260408083206001600160a01b038716845290915281205490916107ea9185906109b49086906136e4565b61141a565b6000438210610a0a5760405162461bcd60e51b815260206004820152601f60248201527f4552433230566f7465733a20626c6f636b206e6f7420796574206d696e6564006044820152606401610882565b6001600160a01b03831660009081526101956020526040902061089e9083611943565b60c9546001600160a01b03163314610a575760405162461bcd60e51b8152600401610882906136fc565b610a5f611a00565b565b6000610a6d8484611073565b50836001600160a01b0316336001600160a01b03167fe19260aff97b920c7df27010903aeb9c8d2be5d310a2c67824cf3f15396e4c168585604051610ab3929190613731565b60405180910390a3833b15610acd57610acd848484611a93565b5060019392505050565b60c9546001600160a01b03163314610b015760405162461bcd60e51b8152600401610882906136fc565b610b0b8282611afd565b5050565b61097a3382611b07565b6001600160a01b038216600090815260976020526040812081908190610b40908590611b11565b9150915081610b67576001600160a01b038516600090815260336020526040902054610b69565b805b95945050505050565b306001600160a01b037f0000000000000000000000000000000000000000000000000000000000000000161415610bbb5760405162461bcd60e51b815260040161088290613636565b7f00000000000000000000000000000000000000000000000000000000000000006001600160a01b0316610bed6117a0565b6001600160a01b031614610c135760405162461bcd60e51b815260040161088290613682565b610c1c826117ce565b610b0b828260016117f8565b61097a3382611c0e565b6001600160a01b038116600090815261019560205260408120546107ee90611c89565b60c9546001600160a01b03163314610c7f5760405162461bcd60e51b8152600401610882906136fc565b610a5f6000611cf2565b6000610c9583336106b6565b905081811015610cf35760405162461bcd60e51b8152602060048201526024808201527f45524332303a206275726e20616d6f756e74206578636565647320616c6c6f77604482015263616e636560e01b6064820152608401610882565b610d00833384840361141a565b610d0a8383611b07565b505050565b6001600160a01b038116600090815261016160205260408120546107ee565b600054610100900460ff1680610d47575060005460ff16155b610d635760405162461bcd60e51b81526004016108829061374a565b600054610100900460ff16158015610d85576000805461ffff19166101011790555b610dce6040518060400160405280600a815260200169436861696e53636f726560b01b8152506040518060400160405280600581526020016453434f524560d81b815250611d44565b610dd6611dc3565b610dde611e2a565b610de6611dc3565b610dee611e88565b610df6611eef565b610e216040518060400160405280600a815260200169436861696e53636f726560b01b815250611f56565b610e29611dc3565b610e4c33610e396012600a613874565b610e4790633b9aca00613883565b611afd565b801561097a576000805461ff001916905550565b60c9546001600160a01b03163314610e8a5760405162461bcd60e51b8152600401610882906136fc565b610a5f611ff6565b6000438210610ee35760405162461bcd60e51b815260206004820152601f60248201527f4552433230566f7465733a20626c6f636b206e6f7420796574206d696e6564006044820152606401610882565b6107ee61019683611943565b60606037805461075a90613601565b60c9546001600160a01b03163314610f285760405162461bcd60e51b8152600401610882906136fc565b61097a612071565b6000806000610f40846098611b11565b9150915081610f5157603554610f53565b805b949350505050565b6001600160a01b038116600090815261019560205260408120548015610fd1576001600160a01b038316600090815261019560205260409020610f9f6001836138a2565b81548110610faf57610faf6138b9565b60009182526020909120015464010000000090046001600160e01b0316610fd4565b60005b6001600160e01b03169392505050565b3360009081526034602090815260408083206001600160a01b0386168452909152812054828110156110665760405162461bcd60e51b815260206004820152602560248201527f45524332303a2064656372656173656420616c6c6f77616e63652062656c6f77604482015264207a65726f60d81b6064820152608401610882565b610acd338585840361141a565b60006107ea33848461153e565b834211156110d05760405162461bcd60e51b815260206004820152601d60248201527f4552433230566f7465733a207369676e617475726520657870697265640000006044820152606401610882565b604080517fe48329057bfd03d55e49b547132e39cffd9c1820ad7b9d4c5307691425d15adf60208201526001600160a01b03881691810191909152606081018690526080810185905260009061114a906111429060a001604051602081830303815290604052805190602001206120cb565b858585612119565b905061115581612141565b86146111a35760405162461bcd60e51b815260206004820152601960248201527f4552433230566f7465733a20696e76616c6964206e6f6e6365000000000000006044820152606401610882565b6111ad8188611c0e565b50505050505050565b834211156112065760405162461bcd60e51b815260206004820152601d60248201527f45524332305065726d69743a206578706972656420646561646c696e650000006044820152606401610882565b6000610162548888886112188c612141565b6040805160208101969096526001600160a01b0394851690860152929091166060840152608083015260a082015260c0810186905260e0016040516020818303038152906040528051906020012090506000611273826120cb565b9050600061128382878787612119565b9050896001600160a01b0316816001600160a01b0316146112e65760405162461bcd60e51b815260206004820152601e60248201527f45524332305065726d69743a20696e76616c6964207369676e617475726500006044820152606401610882565b6112f18a8a8a61141a565b50505050505050505050565b60408051808201909152600080825260208201526001600160a01b038316600090815261019560205260409020805463ffffffff8416908110611342576113426138b9565b60009182526020918290206040805180820190915291015463ffffffff8116825264010000000090046001600160e01b0316918101919091529392505050565b60c9546001600160a01b031633146113ac5760405162461bcd60e51b8152600401610882906136fc565b6001600160a01b0381166114115760405162461bcd60e51b815260206004820152602660248201527f4f776e61626c653a206e6577206f776e657220697320746865207a65726f206160448201526564647265737360d01b6064820152608401610882565b61097a81611cf2565b6001600160a01b03831661147c5760405162461bcd60e51b8152602060048201526024808201527f45524332303a20617070726f76652066726f6d20746865207a65726f206164646044820152637265737360e01b6064820152608401610882565b6001600160a01b0382166114dd5760405162461bcd60e51b815260206004820152602260248201527f45524332303a20617070726f766520746f20746865207a65726f206164647265604482015261737360f01b6064820152608401610882565b6001600160a01b0383811660008181526034602090815260408083209487168084529482529182902085905590518481527f8c5be1e5ebec7d5bd14f71427d1e84f3dd0314c0f7b2291e5b200ac8c7c3b925910160405180910390a3505050565b6001600160a01b0383166115a25760405162461bcd60e51b815260206004820152602560248201527f45524332303a207472616e736665722066726f6d20746865207a65726f206164604482015264647265737360d81b6064820152608401610882565b6001600160a01b0382166116045760405162461bcd60e51b815260206004820152602360248201527f45524332303a207472616e7366657220746f20746865207a65726f206164647260448201526265737360e81b6064820152608401610882565b61160f83838361216a565b6001600160a01b038316600090815260336020526040902054818110156116875760405162461bcd60e51b815260206004820152602660248201527f45524332303a207472616e7366657220616d6f756e7420657863656564732062604482015265616c616e636560d01b6064820152608401610882565b6001600160a01b038085166000908152603360205260408082208585039055918516815290812080548492906116be9084906136e4565b92505081905550826001600160a01b0316846001600160a01b03167fddf252ad1be2c89b69c2b068fc378daa952ba7f163c4a11628f55a4df523b3ef8460405161170a91815260200190565b60405180910390a361171d8484846121bb565b50505050565b60006108af7f8b73c3c69bb8fe3d512ecc4cf759cc79239f7b179b0ffacaa9a75d522b39400f61175361012d5490565b61012e546040805160208101859052908101839052606081018290524660808201523060a082015260009060c0016040516020818303038152906040528051906020012090509392505050565b7f360894a13ba1a3210667c828492db98dca3e2076cc3735a920a3ca505d382bbc546001600160a01b031690565b60c9546001600160a01b0316331461097a5760405162461bcd60e51b8152600401610882906136fc565b60006118026117a0565b905061180d846121c6565b60008351118061181a5750815b1561182b57611829848461226b565b505b7f4910fdfa16fed3260ed0e7147f7cc6da11a60208b5b9406d12a635614ffd9143805460ff1661193c57805460ff191660011781556040516001600160a01b03831660248201526118aa90869060440160408051601f198184030181529190526020810180516001600160e01b0316631b2ce7f360e11b17905261226b565b50805460ff191681556118bb6117a0565b6001600160a01b0316826001600160a01b0316146119335760405162461bcd60e51b815260206004820152602f60248201527f45524331393637557067726164653a207570677261646520627265616b73206660448201526e75727468657220757067726164657360881b6064820152608401610882565b61193c8561234d565b5050505050565b8154600090815b818110156119a757600061195e828461238d565b905084868281548110611973576119736138b9565b60009182526020909120015463ffffffff161115611993578092506119a1565b61199e8160016136e4565b91505b5061194a565b81156119eb57846119b96001846138a2565b815481106119c9576119c96138b9565b60009182526020909120015464010000000090046001600160e01b03166119ee565b60005b6001600160e01b031695945050505050565b60fb5460ff16611a495760405162461bcd60e51b815260206004820152601460248201527314185d5cd8589b194e881b9bdd081c185d5cd95960621b6044820152606401610882565b60fb805460ff191690557f5db9ee0a495bf2e6ff9c91a7834c1ba4fdd244a5e8aa4e537bd38aeae4b073aa335b6040516001600160a01b03909116815260200160405180910390a1565b604051635260769b60e11b815283906001600160a01b0382169063a4c0ed3690611ac5903390879087906004016138cf565b600060405180830381600087803b158015611adf57600080fd5b505af1158015611af3573d6000803e3d6000fd5b5050505050505050565b610b0b82826123a8565b610b0b8282612433565b60008060008411611b5d5760405162461bcd60e51b815260206004820152601660248201527504552433230536e617073686f743a20696420697320360541b6044820152606401610882565b611b6561244c565b841115611bb45760405162461bcd60e51b815260206004820152601d60248201527f4552433230536e617073686f743a206e6f6e6578697374656e742069640000006044820152606401610882565b6000611bc08486612457565b8454909150811415611bd9576000809250925050611c07565b6001846001018281548110611bf057611bf06138b9565b90600052602060002001549250925050611c07565b505b9250929050565b6001600160a01b0382811660008181526101946020818152604080842080546033845282862054949093528787166001600160a01b03198416811790915590519190951694919391928592917f3134e8a2e6d97e929a7e54011ea5485d7d196dd5f0ba4d4ef95803e8e3fc257f9190a461171d82848361251a565b600063ffffffff821115611cee5760405162461bcd60e51b815260206004820152602660248201527f53616665436173743a2076616c756520646f65736e27742066697420696e203360448201526532206269747360d01b6064820152608401610882565b5090565b60c980546001600160a01b038381166001600160a01b0319831681179093556040519116919082907f8be0079c531659141344cd1fd0a4f28419497f9722a3daafe3b4186f6b6457e090600090a35050565b600054610100900460ff1680611d5d575060005460ff16155b611d795760405162461bcd60e51b81526004016108829061374a565b600054610100900460ff16158015611d9b576000805461ffff19166101011790555b611da3612659565b611dad83836126c3565b8015610d0a576000805461ff0019169055505050565b600054610100900460ff1680611ddc575060005460ff16155b611df85760405162461bcd60e51b81526004016108829061374a565b600054610100900460ff16158015611e1a576000805461ffff19166101011790555b611e22612659565b610e4c612659565b600054610100900460ff1680611e43575060005460ff16155b611e5f5760405162461bcd60e51b81526004016108829061374a565b600054610100900460ff16158015611e22576000805461ffff1916610101179055610e4c612659565b600054610100900460ff1680611ea1575060005460ff16155b611ebd5760405162461bcd60e51b81526004016108829061374a565b600054610100900460ff16158015611edf576000805461ffff19166101011790555b611ee7612659565b610e4c612758565b600054610100900460ff1680611f08575060005460ff16155b611f245760405162461bcd60e51b81526004016108829061374a565b600054610100900460ff16158015611f46576000805461ffff19166101011790555b611f4e612659565b610e4c6127b8565b600054610100900460ff1680611f6f575060005460ff16155b611f8b5760405162461bcd60e51b81526004016108829061374a565b600054610100900460ff16158015611fad576000805461ffff19166101011790555b611fb5612659565b611fd882604051806040016040528060018152602001603160f81b81525061282d565b611fe1826128b9565b8015610b0b576000805461ff00191690555050565b60fb5460ff161561203c5760405162461bcd60e51b815260206004820152601060248201526f14185d5cd8589b194e881c185d5cd95960821b6044820152606401610882565b60fb805460ff191660011790557f62e78cea01bee320cd4e420270b5ea74000d11b0c9f74754ebdbfc544b05a258611a763390565b6000612081609a80546001019055565b600061208b61244c565b90507f8030e83b04d87bef53480e26263266d6ca66863aa8506aca6f2559d18aa1cb67816040516120be91815260200190565b60405180910390a1919050565b60006107ee6120d8611723565b8360405161190160f01b6020820152602281018390526042810182905260009060620160405160208183030381529060405280519060200120905092915050565b600080600061212a8787878761294a565b9150915061213781612a37565b5095945050505050565b6001600160a01b0381166000908152610161602052604090208054600181018255905b50919050565b60fb5460ff16156121b05760405162461bcd60e51b815260206004820152601060248201526f14185d5cd8589b194e881c185d5cd95960821b6044820152606401610882565b610d0a838383612bf2565b610d0a838383612c3a565b803b61222a5760405162461bcd60e51b815260206004820152602d60248201527f455243313936373a206e657720696d706c656d656e746174696f6e206973206e60448201526c1bdd08184818dbdb9d1c9858dd609a1b6064820152608401610882565b7f360894a13ba1a3210667c828492db98dca3e2076cc3735a920a3ca505d382bbc80546001600160a01b0319166001600160a01b0392909216919091179055565b6060823b6122ca5760405162461bcd60e51b815260206004820152602660248201527f416464726573733a2064656c65676174652063616c6c20746f206e6f6e2d636f6044820152651b9d1c9858dd60d21b6064820152608401610882565b600080846001600160a01b0316846040516122e591906138f6565b600060405180830381855af49150503d8060008114612320576040519150601f19603f3d011682016040523d82523d6000602084013e612325565b606091505b5091509150610b69828260405180606001604052806027815260200161394b60279139612c6d565b612356816121c6565b6040516001600160a01b038216907fbc7cd75a20ee27fd9adebab32041f755214dbc6bffa90cc0225b39da2e5c2d3b90600090a250565b600061239c6002848418613912565b61089e908484166136e4565b6123b28282612ca6565b6035546001600160e01b0310156124245760405162461bcd60e51b815260206004820152603060248201527f4552433230566f7465733a20746f74616c20737570706c79207269736b73206f60448201526f766572666c6f77696e6720766f74657360801b6064820152608401610882565b61171d610196612d9983612da5565b61243d8282612f1e565b61171d61019661307f83612da5565b60006108af609a5490565b8154600090612468575060006107ee565b82546000905b808210156124c4576000612482838361238d565b905084868281548110612497576124976138b9565b906000526020600020015411156124b0578091506124be565b6124bb8160016136e4565b92505b5061246e565b6000821180156124f9575083856124dc6001856138a2565b815481106124ec576124ec6138b9565b9060005260206000200154145b15612512576125096001836138a2565b925050506107ee565b5090506107ee565b816001600160a01b0316836001600160a01b03161415801561253c5750600081115b15610d0a576001600160a01b038316156125cb576001600160a01b03831660009081526101956020526040812081906125789061307f85612da5565b91509150846001600160a01b03167fdec2bacdd2f05b59de34da9b523dff8be42e5e38e818c82fdb0bae774387a72483836040516125c0929190918252602082015260400190565b60405180910390a250505b6001600160a01b03821615610d0a576001600160a01b038216600090815261019560205260408120819061260290612d9985612da5565b91509150836001600160a01b03167fdec2bacdd2f05b59de34da9b523dff8be42e5e38e818c82fdb0bae774387a724838360405161264a929190918252602082015260400190565b60405180910390a25050505050565b600054610100900460ff1680612672575060005460ff16155b61268e5760405162461bcd60e51b81526004016108829061374a565b600054610100900460ff16158015610e4c576000805461ffff1916610101179055801561097a576000805461ff001916905550565b600054610100900460ff16806126dc575060005460ff16155b6126f85760405162461bcd60e51b81526004016108829061374a565b600054610100900460ff1615801561271a576000805461ffff19166101011790555b825161272d9060369060208601906131c7565b5081516127419060379060208501906131c7565b508015610d0a576000805461ff0019169055505050565b600054610100900460ff1680612771575060005460ff16155b61278d5760405162461bcd60e51b81526004016108829061374a565b600054610100900460ff161580156127af576000805461ffff19166101011790555b610e4c33611cf2565b600054610100900460ff16806127d1575060005460ff16155b6127ed5760405162461bcd60e51b81526004016108829061374a565b600054610100900460ff1615801561280f576000805461ffff19166101011790555b60fb805460ff19169055801561097a576000805461ff001916905550565b600054610100900460ff1680612846575060005460ff16155b6128625760405162461bcd60e51b81526004016108829061374a565b600054610100900460ff16158015612884576000805461ffff19166101011790555b825160208085019190912083519184019190912061012d9190915561012e558015610d0a576000805461ff0019169055505050565b600054610100900460ff16806128d2575060005460ff16155b6128ee5760405162461bcd60e51b81526004016108829061374a565b600054610100900460ff16158015612910576000805461ffff19166101011790555b7f6e71edae12b1b97f4d1f60370fef10105fa2faae0126114a169c64845d6126c9610162558015610b0b576000805461ff00191690555050565b6000807f7fffffffffffffffffffffffffffffff5d576e7357a4501ddfe92f46681b20a08311156129815750600090506003612a2e565b8460ff16601b1415801561299957508460ff16601c14155b156129aa5750600090506004612a2e565b6040805160008082526020820180845289905260ff881692820192909252606081018690526080810185905260019060a0016020604051602081039080840390855afa1580156129fe573d6000803e3d6000fd5b5050604051601f1901519150506001600160a01b038116612a2757600060019250925050612a2e565b9150600090505b94509492505050565b6000816004811115612a4b57612a4b613934565b1415612a545750565b6001816004811115612a6857612a68613934565b1415612ab65760405162461bcd60e51b815260206004820152601860248201527f45434453413a20696e76616c6964207369676e617475726500000000000000006044820152606401610882565b6002816004811115612aca57612aca613934565b1415612b185760405162461bcd60e51b815260206004820152601f60248201527f45434453413a20696e76616c6964207369676e6174757265206c656e677468006044820152606401610882565b6003816004811115612b2c57612b2c613934565b1415612b855760405162461bcd60e51b815260206004820152602260248201527f45434453413a20696e76616c6964207369676e6174757265202773272076616c604482015261756560f01b6064820152608401610882565b6004816004811115612b9957612b99613934565b141561097a5760405162461bcd60e51b815260206004820152602260248201527f45434453413a20696e76616c6964207369676e6174757265202776272076616c604482015261756560f01b6064820152608401610882565b6001600160a01b038316612c1157612c098261308b565b610d0a6130be565b6001600160a01b038216612c2857612c098361308b565b612c318361308b565b610d0a8261308b565b6001600160a01b0383811660009081526101946020526040808220548584168352912054610d0a9291821691168361251a565b60608315612c7c57508161089e565b825115612c8c5782518084602001fd5b8160405162461bcd60e51b815260040161088291906132af565b6001600160a01b038216612cfc5760405162461bcd60e51b815260206004820152601f60248201527f45524332303a206d696e7420746f20746865207a65726f2061646472657373006044820152606401610882565b612d086000838361216a565b8060356000828254612d1a91906136e4565b90915550506001600160a01b03821660009081526033602052604081208054839290612d479084906136e4565b90915550506040518181526001600160a01b038316906000907fddf252ad1be2c89b69c2b068fc378daa952ba7f163c4a11628f55a4df523b3ef9060200160405180910390a3610b0b600083836121bb565b600061089e82846136e4565b825460009081908015612df05785612dbe6001836138a2565b81548110612dce57612dce6138b9565b60009182526020909120015464010000000090046001600160e01b0316612df3565b60005b6001600160e01b03169250612e0c83858763ffffffff16565b9150600081118015612e4a57504386612e266001846138a2565b81548110612e3657612e366138b9565b60009182526020909120015463ffffffff16145b15612eaa57612e58826130cc565b86612e646001846138a2565b81548110612e7457612e746138b9565b9060005260206000200160000160046101000a8154816001600160e01b0302191690836001600160e01b03160217905550612f15565b856040518060400160405280612ebf43611c89565b63ffffffff168152602001612ed3856130cc565b6001600160e01b0390811690915282546001810184556000938452602093849020835194909301519091166401000000000263ffffffff909316929092179101555b50935093915050565b6001600160a01b038216612f7e5760405162461bcd60e51b815260206004820152602160248201527f45524332303a206275726e2066726f6d20746865207a65726f206164647265736044820152607360f81b6064820152608401610882565b612f8a8260008361216a565b6001600160a01b03821660009081526033602052604090205481811015612ffe5760405162461bcd60e51b815260206004820152602260248201527f45524332303a206275726e20616d6f756e7420657863656564732062616c616e604482015261636560f01b6064820152608401610882565b6001600160a01b038316600090815260336020526040812083830390556035805484929061302d9084906138a2565b90915550506040518281526000906001600160a01b038516907fddf252ad1be2c89b69c2b068fc378daa952ba7f163c4a11628f55a4df523b3ef9060200160405180910390a3610d0a836000846121bb565b600061089e82846138a2565b6001600160a01b038116600090815260976020908152604080832060339092529091205461097a9190613135565b613135565b610a5f60986130b960355490565b60006001600160e01b03821115611cee5760405162461bcd60e51b815260206004820152602760248201527f53616665436173743a2076616c756520646f65736e27742066697420696e20326044820152663234206269747360c81b6064820152608401610882565b600061313f61244c565b90508061314b8461317f565b1015610d0a578254600180820185556000858152602080822090930193909355938401805494850181558252902090910155565b805460009061319057506000919050565b815482906131a0906001906138a2565b815481106131b0576131b06138b9565b90600052602060002001549050919050565b919050565b8280546131d390613601565b90600052602060002090601f0160209004810192826131f5576000855561323b565b82601f1061320e57805160ff191683800117855561323b565b8280016001018555821561323b579182015b8281111561323b578251825591602001919060010190613220565b50611cee9291505b80821115611cee5760008155600101613243565b60005b8381101561327257818101518382015260200161325a565b8381111561171d5750506000910152565b6000815180845261329b816020860160208601613257565b601f01601f19169290920160200192915050565b60208152600061089e6020830184613283565b80356001600160a01b03811681146131c257600080fd5b600080604083850312156132ec57600080fd5b6132f5836132c2565b946020939093013593505050565b60008060006060848603121561331857600080fd5b613321846132c2565b925061332f602085016132c2565b9150604084013590509250925092565b60006020828403121561335157600080fd5b61089e826132c2565b634e487b7160e01b600052604160045260246000fd5b600082601f83011261338157600080fd5b813567ffffffffffffffff8082111561339c5761339c61335a565b604051601f8301601f19908116603f011681019082821181831017156133c4576133c461335a565b816040528381528660208588010111156133dd57600080fd5b836020870160208301376000602085830101528094505050505092915050565b60008060006060848603121561341257600080fd5b61341b846132c2565b925060208401359150604084013567ffffffffffffffff81111561343e57600080fd5b61344a86828701613370565b9150509250925092565b60006020828403121561346657600080fd5b5035919050565b6000806040838503121561348057600080fd5b613489836132c2565b9150602083013567ffffffffffffffff8111156134a557600080fd5b6134b185828601613370565b9150509250929050565b803560ff811681146131c257600080fd5b60008060008060008060c087890312156134e557600080fd5b6134ee876132c2565b9550602087013594506040870135935061350a606088016134bb565b92506080870135915060a087013590509295509295509295565b600080600080600080600060e0888a03121561353f57600080fd5b613548886132c2565b9650613556602089016132c2565b95506040880135945060608801359350613572608089016134bb565b925060a0880135915060c0880135905092959891949750929550565b600080604083850312156135a157600080fd5b6135aa836132c2565b91506135b8602084016132c2565b90509250929050565b600080604083850312156135d457600080fd5b6135dd836132c2565b9150602083013563ffffffff811681146135f657600080fd5b809150509250929050565b600181811c9082168061361557607f821691505b6020821081141561216457634e487b7160e01b600052602260045260246000fd5b6020808252602c908201527f46756e6374696f6e206d7573742062652063616c6c6564207468726f7567682060408201526b19195b1959d85d1958d85b1b60a21b606082015260800190565b6020808252602c908201527f46756e6374696f6e206d7573742062652063616c6c6564207468726f7567682060408201526b6163746976652070726f787960a01b606082015260800190565b634e487b7160e01b600052601160045260246000fd5b600082198211156136f7576136f76136ce565b500190565b6020808252818101527f4f776e61626c653a2063616c6c6572206973206e6f7420746865206f776e6572604082015260600190565b828152604060208201526000610f536040830184613283565b6020808252602e908201527f496e697469616c697a61626c653a20636f6e747261637420697320616c72656160408201526d191e481a5b9a5d1a585b1a5e995960921b606082015260800190565b600181815b80851115611c055781600019048211156137b9576137b96136ce565b808516156137c657918102915b93841c939080029061379d565b6000826137e2575060016107ee565b816137ef575060006107ee565b8160018114613805576002811461380f5761382b565b60019150506107ee565b60ff841115613820576138206136ce565b50506001821b6107ee565b5060208310610133831016604e8410600b841016171561384e575081810a6107ee565b6138588383613798565b806000190482111561386c5761386c6136ce565b029392505050565b600061089e60ff8416836137d3565b600081600019048311821515161561389d5761389d6136ce565b500290565b6000828210156138b4576138b46136ce565b500390565b634e487b7160e01b600052603260045260246000fd5b60018060a01b0384168152826020820152606060408201526000610b696060830184613283565b60008251613908818460208701613257565b9190910192915050565b60008261392f57634e487b7160e01b600052601260045260246000fd5b500490565b634e487b7160e01b600052602160045260246000fdfe416464726573733a206c6f772d6c6576656c2064656c65676174652063616c6c206661696c6564a264697066735822122088fade9167a0a75544e970ce6b1760ab9c7d87a930956bbc89c452c48caf0d1364736f6c634300080a0033",
  "immutableReferences": {
    "613": [
      {
        "length": 32,
        "start": 2239
      },
      {
        "length": 32,
        "start": 2303
      },
      {
        "length": 32,
        "start": 2941
      },
      {
        "length": 32,
        "start": 3005
      }
    ]
  },
  "source": "// SPDX-License-Identifier: MIT\npragma solidity ^0.8.2;\n\nimport \"@openzeppelin/contracts-upgradeable/token/ERC20/ERC20Upgradeable.sol\";\nimport \"@openzeppelin/contracts-upgradeable/token/ERC20/extensions/ERC20BurnableUpgradeable.sol\";\nimport \"@openzeppelin/contracts-upgradeable/token/ERC20/extensions/ERC20SnapshotUpgradeable.sol\";\nimport \"@openzeppelin/contracts-upgradeable/access/OwnableUpgradeable.sol\";\nimport \"@openzeppelin/contracts-upgradeable/security/PausableUpgradeable.sol\";\nimport \"@openzeppelin/contracts-upgradeable/token/ERC20/extensions/draft-ERC20PermitUpgradeable.sol\";\nimport \"@openzeppelin/contracts-upgradeable/token/ERC20/extensions/ERC20VotesUpgradeable.sol\";\nimport \"@openzeppelin/contracts-upgradeable/proxy/utils/Initializable.sol\";\nimport \"@openzeppelin/contracts-upgradeable/proxy/utils/UUPSUpgradeable.sol\";\nimport \"./ERC677/ERC677Upgradable.sol\";\n\n/// @custom:security-contact prasad@chainscore.finance\ncontract ChainScore is\n    Initializable,\n    ERC20Upgradeable,\n    ERC20BurnableUpgradeable,\n    ERC20SnapshotUpgradeable,\n    OwnableUpgradeable,\n    PausableUpgradeable,\n    ERC20PermitUpgradeable,\n    ERC20VotesUpgradeable,\n    UUPSUpgradeable,\n    ERC677Upgradable\n{\n    /// @custom:oz-upgrades-unsafe-allow constructor\n    // constructor() initializer {}\n\n    function initialize() public initializer {\n        __ERC20_init(\"ChainScore\", \"SCORE\");\n        __ERC20Burnable_init();\n        __ERC677_init();\n        __ERC20Snapshot_init();\n        __Ownable_init();\n        __Pausable_init();\n        __ERC20Permit_init(\"ChainScore\");\n        __UUPSUpgradeable_init();\n\n        _mint(msg.sender, 1000000000 * 10**decimals());\n    }\n\n    function snapshot() public onlyOwner {\n        _snapshot();\n    }\n\n    function pause() public onlyOwner {\n        _pause();\n    }\n\n    function unpause() public onlyOwner {\n        _unpause();\n    }\n\n    function mint(address to, uint256 amount) public onlyOwner {\n        _mint(to, amount);\n    }\n\n    function _beforeTokenTransfer(\n        address from,\n        address to,\n        uint256 amount\n    )\n        internal\n        override(ERC20Upgradeable, ERC20SnapshotUpgradeable)\n        whenNotPaused\n    {\n        super._beforeTokenTransfer(from, to, amount);\n    }\n\n    function _authorizeUpgrade(address newImplementation)\n        internal\n        override\n        onlyOwner\n    {}\n\n    // The following functions are overrides required by Solidity.\n\n    function _afterTokenTransfer(\n        address from,\n        address to,\n        uint256 amount\n    ) internal override(ERC20Upgradeable, ERC20VotesUpgradeable) {\n        super._afterTokenTransfer(from, to, amount);\n    }\n\n    function _mint(address to, uint256 amount)\n        internal\n        override(ERC20Upgradeable, ERC20VotesUpgradeable)\n    {\n        super._mint(to, amount);\n    }\n\n    function _burn(address account, uint256 amount)\n        internal\n        override(ERC20Upgradeable, ERC20VotesUpgradeable)\n    {\n        super._burn(account, amount);\n    }\n    \n}\n",
  "sourcePath": "/Users/prasad/projects/chainscore/token/contracts/SCORE.sol",
  "compiler": {
    "name": "solc",
    "version": "0.8.10+commit.fc410830.Emscripten.clang"
  },
  "schemaVersion": "3.4.3",
  "updatedAt": "2021-12-04T12:08:01.367Z",
  "networkType": "ethereum",
  "devdoc": {
    "custom:security-contact": "prasad@chainscore.finance",
    "kind": "dev",
    "methods": {
      "DOMAIN_SEPARATOR()": {
        "details": "See {IERC20Permit-DOMAIN_SEPARATOR}."
      },
      "allowance(address,address)": {
        "details": "See {IERC20-allowance}."
      },
      "approve(address,uint256)": {
        "details": "See {IERC20-approve}. Requirements: - `spender` cannot be the zero address."
      },
      "balanceOf(address)": {
        "details": "See {IERC20-balanceOf}."
      },
      "balanceOfAt(address,uint256)": {
        "details": "Retrieves the balance of `account` at the time `snapshotId` was created."
      },
      "burn(uint256)": {
        "details": "Destroys `amount` tokens from the caller. See {ERC20-_burn}."
      },
      "burnFrom(address,uint256)": {
        "details": "Destroys `amount` tokens from `account`, deducting from the caller's allowance. See {ERC20-_burn} and {ERC20-allowance}. Requirements: - the caller must have allowance for ``accounts``'s tokens of at least `amount`."
      },
      "checkpoints(address,uint32)": {
        "details": "Get the `pos`-th checkpoint for `account`."
      },
      "decimals()": {
        "details": "Returns the number of decimals used to get its user representation. For example, if `decimals` equals `2`, a balance of `505` tokens should be displayed to a user as `5.05` (`505 / 10 ** 2`). Tokens usually opt for a value of 18, imitating the relationship between Ether and Wei. This is the value {ERC20} uses, unless this function is overridden; NOTE: This information is only used for _display_ purposes: it in no way affects any of the arithmetic of the contract, including {IERC20-balanceOf} and {IERC20-transfer}."
      },
      "decreaseAllowance(address,uint256)": {
        "details": "Atomically decreases the allowance granted to `spender` by the caller. This is an alternative to {approve} that can be used as a mitigation for problems described in {IERC20-approve}. Emits an {Approval} event indicating the updated allowance. Requirements: - `spender` cannot be the zero address. - `spender` must have allowance for the caller of at least `subtractedValue`."
      },
      "delegate(address)": {
        "details": "Delegate votes from the sender to `delegatee`."
      },
      "delegateBySig(address,uint256,uint256,uint8,bytes32,bytes32)": {
        "details": "Delegates votes from signer to `delegatee`"
      },
      "delegates(address)": {
        "details": "Get the address `account` is currently delegating to."
      },
      "getPastTotalSupply(uint256)": {
        "details": "Retrieve the `totalSupply` at the end of `blockNumber`. Note, this value is the sum of all balances. It is but NOT the sum of all the delegated votes! Requirements: - `blockNumber` must have been already mined"
      },
      "getPastVotes(address,uint256)": {
        "details": "Retrieve the number of votes for `account` at the end of `blockNumber`. Requirements: - `blockNumber` must have been already mined"
      },
      "getVotes(address)": {
        "details": "Gets the current votes balance for `account`"
      },
      "increaseAllowance(address,uint256)": {
        "details": "Atomically increases the allowance granted to `spender` by the caller. This is an alternative to {approve} that can be used as a mitigation for problems described in {IERC20-approve}. Emits an {Approval} event indicating the updated allowance. Requirements: - `spender` cannot be the zero address."
      },
      "initialize()": {
        "custom:oz-upgrades-unsafe-allow": "constructor"
      },
      "name()": {
        "details": "Returns the name of the token."
      },
      "nonces(address)": {
        "details": "See {IERC20Permit-nonces}."
      },
      "numCheckpoints(address)": {
        "details": "Get number of checkpoints for `account`."
      },
      "owner()": {
        "details": "Returns the address of the current owner."
      },
      "paused()": {
        "details": "Returns true if the contract is paused, and false otherwise."
      },
      "permit(address,address,uint256,uint256,uint8,bytes32,bytes32)": {
        "details": "See {IERC20Permit-permit}."
      },
      "renounceOwnership()": {
        "details": "Leaves the contract without owner. It will not be possible to call `onlyOwner` functions anymore. Can only be called by the current owner. NOTE: Renouncing ownership will leave the contract without an owner, thereby removing any functionality that is only available to the owner."
      },
      "symbol()": {
        "details": "Returns the symbol of the token, usually a shorter version of the name."
      },
      "totalSupply()": {
        "details": "See {IERC20-totalSupply}."
      },
      "totalSupplyAt(uint256)": {
        "details": "Retrieves the total supply at the time `snapshotId` was created."
      },
      "transfer(address,uint256)": {
        "details": "See {IERC20-transfer}. Requirements: - `recipient` cannot be the zero address. - the caller must have a balance of at least `amount`."
      },
      "transferAndCall(address,uint256,bytes)": {
        "details": "Destroys `amount` tokens from the caller. See {ERC20-_burn}."
      },
      "transferFrom(address,address,uint256)": {
        "details": "See {IERC20-transferFrom}. Emits an {Approval} event indicating the updated allowance. This is not required by the EIP. See the note at the beginning of {ERC20}. Requirements: - `sender` and `recipient` cannot be the zero address. - `sender` must have a balance of at least `amount`. - the caller must have allowance for ``sender``'s tokens of at least `amount`."
      },
      "transferOwnership(address)": {
        "details": "Transfers ownership of the contract to a new account (`newOwner`). Can only be called by the current owner."
      },
      "upgradeTo(address)": {
        "details": "Upgrade the implementation of the proxy to `newImplementation`. Calls {_authorizeUpgrade}. Emits an {Upgraded} event."
      },
      "upgradeToAndCall(address,bytes)": {
        "details": "Upgrade the implementation of the proxy to `newImplementation`, and subsequently execute the function call encoded in `data`. Calls {_authorizeUpgrade}. Emits an {Upgraded} event."
      }
    },
    "version": 1
  },
  "userdoc": {
    "kind": "user",
    "methods": {},
    "version": 1
  }
}